:1018000012C02CC02BC02AC029C028C051C326C07A
:1018100025C024C023C051C27CC220C01FC01EC02E
:101820001DC01CC01BC011241FBECFE5D4E0DEBF0D
:10183000CDBF10E0A0E6B0E0EAE0FFE102C0059015
:101840000D92AC3BB107D9F711E0ACEBB0E001C0B1
:101850001D92A830B107E1F7E3D055C3D1CF8FEF88
:101860009FEF909305018093040108954091040136
:101870005091050190E062E070E107C057FD0DC096
:10188000A9019F5F983079F0880F9A01220F331FCA
:1018900087FFF4CF216057FFF3CFA90146275727D1
:1018A0009F5F983089F75093050140930401089594
:1018B000813041F0C09A613041F0C59A413041F029
:1018C000C29A0895C0986130C1F7C5984130C1F7F8
:1018D000C2980895DC01FB019B012C5F3F4F1396DA
:1018E0008C91139781931197E217F307C1F708952D
:1018F0008C9A8D9A8A9AB89ABD9ABA9A959A929821
:101900008FB7F8949BB790930301292F21602BBFC9
:1019100092609BBF8FBF83E390E020D299D27894EE
:1019200080E690E0B2D280E060E041E0C1DF08955F
:1019300048D208951F93182F8C5F833018F48CEFD2
:1019400040D21F77812F3DD21F910895EF92FF92D1
:101950000F931F93DF93CF93CDB7DEB7CF5FD04008
:101960000FB6F894DEBF0FBECDBF7C01062F80E01E
:101970009DE70197F1F7929A10E003701070000F45
:10198000111F02951295107F1027007F102701610B
:101990008FEF9FEF90930501809304018EEF11D29A
:1019A0008EEF64DF80E00DD280E060DF802FC2DF49
:1019B000802F5CDF82E0E816F10409F182E0BADFF3
:1019C00082E054DF80E052DF80E050DF809105014B
:1019D000B1DF80910401AEDF80E89EE30197F1F76B
:1019E0009298C150DF4F0FB6F894DEBF0FBECDBF47
:1019F000CF91DF911F910F91FF90EF900895198281
:101A000080E48A8384E096DF84E030DF1981812FCF
:101A100091DF812F2BDF80E48DDF80E427DFD2CFC1
:101A20002F923F924F925F926F927F928F929F92EE
:101A3000AF92BF92CF92DF92EF92FF920F931F93DC
:101A4000DF93CF93CDB7DEB7C950D2400FB6F8942D
:101A5000DEBF0FBECDBF1092BD001092BC0048DFAC
:101A6000CC2400E010E05524DD24442443949DE47C
:101A7000A92EB12CAC0EBD1E88E4882E81E0982ED4
:101A80008C0E9D1EB4E06B2E712C6C0E7D1EA5E09D
:101A90002A2E312C2C0E3D1E78D19C0190FDFCCFBE
:101AA0008C3F9105D1F08D3F910509F447C001307D
:101AB00009F11430B0F0143009F44DC0C3FE05C074
:101AC000812F90E009970CF456C01F3FA9F0522EC9
:101AD000822FCCDE00E01FEFDFCF002359F401E0BE
:101AE000DBCFF101E10FF11D20831F5F822FBEDEEE
:101AF00000E0D2CF2068DDCF8D2D90E0C85FDD4FB4
:101B000099838883C850D240E9E0F0E0EC0FFD1FD4
:101B1000E80FF91F2083822FA9DE852D90E0019721
:101B2000C85FDD4FE881F981C850D240E817F90756
:101B300039F13FEFD312D39400E0AECF2FEF3FEF58
:101B400030930501209304018DEF90DE949A00E01C
:101B500010E0DD24A1CFC22E822F88DEFE01389650
:101B6000DE01119680818D933197E615F705D1F747
:101B700000E015E091CF1F5F822F78DE00E08CCF70
:101B800080E074DE80E072DE8091040190910501B6
:101B9000892B71F48985873609F44EC0803709F4A2
:101BA00044C0873769F010E0DD24D39400E074CF9F
:101BB00081E060E040E07CDE00E010E0DD246CCFFE
:101BC0002A859B85FE013D96DE01A85FBE4F81916F
:101BD0008D93EA15FB05D9F7F894492F522F9A01F6
:101BE000DE01A85FBE4F8C9190E01196FC9011979A
:101BF000EE248E299F291296F9010C0147BEE89523
:101C000011242E5F3F4FA815B90569F725E0FA01A9
:101C100027BFE89507B600FCFDCF78946C2D66953C
:101C2000637081E090E092DEBECF6C2D66956370AC
:101C300082E090E08BDEB7CFC694F3E0CF2282E063
:101C400090E06C2D83DE83E790E01FD18CE990E07B
:101C50001CD120E137E240E951E0CA010197F1F7D8
:101C600021503040D1F7F8948BB780930301982F1F
:101C700091609BBF8D7F8BBFE091BC00F091BD0058
:101C8000099580E090E0C75FDD4F0FB6F894DEBFA6
:101C90000FBECDBFCF91DF911F910F91FF90EF90BD
:101CA000DF90CF90BF90AF909F908F907F906F907C
:101CB0005F904F903F902F9008951F920F920FB614
:101CC0000F9211242F938F939F93EF93FF939BB1C8
:101CD0002CB1E0910001EF5FEF7180910101E817F5
:101CE000B1F09871E0930001F0E0E252FF4F2083E1
:101CF00080910201982B90930201FF91EF919F91A7
:101D00008F912F910F900FBE0F901F90189592E01A
:101D1000EFCF1F920F920FB60F9211248F939F93C4
:101D2000EF93FF939091FE008091FF009817A1F030
:101D3000E091FF00EF5FEF71E093FF00F0E0E2540D
:101D4000FF4F80818CB9FF91EF919F918F910F9000
:101D50000FBE0F901F9018955598F5CF9C011092CB
:101D6000FE001092FF00109200011092010197FFF7
:101D700003C082E08BB93F7730BD29B988E98AB9C1
:101D800086E880BD86EA80BD08959091000180912B
:101D90000101981791F0E0910101EF5FEF71E0937D
:101DA0000101F0E0E252FF4F808190910201109218
:101DB0000201282F30E0C901089520E031E0C90177
:101DC0000895282F9091FE009F5F9F718091FF00E2
:101DD0009817E1F3E92FF0E0E254FF4F208390934E
:101DE000FE00559A0895DC012C912223A1F0119652
:101DF0009091FE009F5F9F718091FF009817E1F323
:101E0000E92FF0E0E254FF4F20839093FE00559AB3
:101E10002C91222361F70895FC0144914423B9F0E9
:101E20009C012F5F3F4F9091FE009F5F9F718091BB
:101E3000FF009817E1F3E92FF0E0E254FF4F4083F1
:101E40009093FE00559AF9014491442351F7089567
:101E50008CB59DB501969BBD8ABD80EC8FBD81E898
:101E60008EBD80E288BF80E389BF10920701B99AD6
:101E70000895982F809107018823E1F7909590931A
:101E800006018AE0809307010895FC01908199235F
:101E900071F02AE03196809107018823E1F790954F
:101EA00090930601209307019081992399F7089553
:101EB0001F920F920FB60F9211248F939F938AB5A2
:101EC0009BB58F5B9C4F9BBD8ABD8091070188238A
:101ED00071F0815080930701893091F08091060163
:101EE00080FF0CC090E88695809306019FBD9F916E
:101EF0008F910F900FBE0F901F90189590ECF3CF1D
:0A1F000090E89FBDF4CFF894FFCFE6
:101F0A000A0D426F6F746C6F616465722053657459
:101F1A007570000A0D203078363720656D7066615D
:101F2A006E67656E203D3D3E2050726F6772616D2F
:101F3A006D696E6720666572746967000A0D2053C1
:101F4A007072696E6765207A757220416472657372
:0C1F5A00736520307830303030210000FA
:0400000300001800E1
:00000001FF
