:1000000012C02CC02BC02AC029C028C0A3C426C03F
:1000100025C024C023C09CC3C5C320C01FC01EC0B0
:100020001DC01CC01BC011241FBECFE5D4E0DEBF25
:10003000CDBF10E0A0E6B0E0EAEFF9E002C0059025
:100040000D92AE39B107D9F711E0AEE9B0E001C0C9
:100050001D92A83FB107E1F715D2CDC4D1CF8FEFE4
:100060009FEF9093EF008093EE0008954091EE0093
:100070005091EF0090E062E070E19A01220F331F8F
:1000800087FD216057FD02C0A90103C0A9014627D1
:1000900057279F5F983011F0880FEFCF5093EF00F4
:1000A0004093EE000895DC01FB019B012C5F3F4F64
:1000B00013968C91139781931197E217F307C1F769
:1000C0000895E0EAFFE03197F1F7C3D308951F9355
:1000D000182F8C5F833038F480EA9FE00197F1F7A6
:1000E0008CEFB7D31F7780EA9FE00197F1F7812F5C
:1000F000B0D31F9108950F931F93CF93DF93182FC1
:1001000080E09DE70197F1F7929A89E18093F001F1
:100110001092F0008FEF9FEF9093EF008093EE002E
:1001200080EA9FE00197F1F78DEF93D38DEF9EDF8B
:1001300080E0CDDF80E09ADF80E0C9DF80E096DFFD
:1001400080E0C5DF80E092DF80E0C1DF80E08EDF0D
:100150008091F001BCDF8091F00188DF1093F00006
:10016000C5EED0E000E010E006C08881B0DF8991E4
:100170007DDF0F5F1F4F8091F00090E00817190797
:10018000A4F300EA1FE0C8010197F1F782E061D310
:1001900082E06CDF80E06ADF80E068DF8091EF0062
:1001A00096DFC8010197F1F78091EE0090DF80E8BB
:1001B0009EE30197F1F79298DF91CF911F910F91F4
:1001C0000895813001F5613069F49899C3C094981D
:1001D00088E893E120E931E0F9013197F1F70197DF
:1001E000D9F70FC0662309F0B5C0989BB3C09498A7
:1001F00088E893E120E931E0F9013197F1F70197BF
:10020000D9F7949AA7C0823001F5613069F49999C1
:10021000A1C0959888E893E120E931E0F901319790
:10022000F1F70197D9F70FC0662309F093C0999BA6
:1002300091C0959888E893E120E931E0F901319780
:10024000F1F70197D9F7959A85C0833001F56130B0
:1002500069F49A997FC0969888E893E120E931E0A3
:10026000F9013197F1F70197D9F70FC0662309F02B
:1002700071C09A9B6FC0969888E893E120E931E0BD
:10028000F9013197F1F70197D9F7969A63C0843055
:1002900001F5613069F49B995DC0979888E893E116
:1002A00020E931E0F9013197F1F70197D9F70FC053
:1002B000662309F04FC09B9B4DC0979888E893E157
:1002C00020E931E0F9013197F1F70197D9F7979AD1
:1002D00041C08530F9F4613069F49C993BC0C39802
:1002E00088E893E120E931E0F9013197F1F70197CE
:1002F000D9F70EC0662371F59C9B2CC0C39888E883
:1003000093E120E931E0F9013197F1F70197D9F74D
:10031000C39A20C08630F1F4613069F49D991AC007
:10032000C49888E893E120E931E0F9013197F1F7C9
:100330000197D9F70EC0662369F49D9B0BC0C49842
:1003400088E893E120E931E0F9013197F1F701976D
:10035000D9F7C49A6091F0016695637084E090E0EB
:10036000CADE0895EF92FF920F931F93CF93DF930E
:100370007C0180E09DE70197F1F7929A70E063704D
:100380007070F5E0660F771FFA95E1F76161609391
:10039000F0011092F0008FEF9FEF9093EF008093A9
:1003A000EE0000EA1FE0C8010197F1F78EEF51D28D
:1003B0008EEF5CDEC8010197F1F780E04AD280E061
:1003C00055DE8091F00183DE8091F0014FDE82E006
:1003D000E816F10441F482E08093F0001092F100FD
:1003E00080E48093F2008091F0008E5F70DE809157
:1003F000F0008E5F3BDE01EF10E0C0E0D0E008C00F
:10040000F801808164DEF80181918F012FDE219651
:100410008091F00090E0C817D90794F380E026DEC1
:1004200080E024DE8091EF0052DE80EA9FE00197B9
:10043000F1F78091EE004BDE80E89EE30197F1F743
:100440009298DF91CF911F910F91FF90EF900895B7
:100450008A9A8C9A8D9A8E9A8F9ABB9ABC9AA098F7
:10046000A198A298A398A498A5989298949A959ADE
:10047000969A979AC39AC49A83E390E0B8D13CD2F3
:10048000789408956F927F928F929F92AF92BF92CD
:10049000CF92DF92EF92FF920F931F93DF93CF9350
:1004A00000D000D0CDB7DEB7D3DF80E690E041D2F8
:1004B000ECEFFFE1C590D590E590F49010E0B0E846
:1004C0006B2EBEE37B2E0FEF5E010894A11CB11CC6
:1004D00088248A94982CA0D19C0190FDFCCF8C3F5D
:1004E000910541F480919E008823B9F481E08093C6
:1004F0009E00F1CF8D3F910581F410929E001092E5
:10050000E40084E08093ED001092F1019092EF00FE
:100510008092EE008DEFAADDDECF80919E008130CB
:1005200019F4206810929E004091E4009091ED0033
:10053000491728F4E42FF0E0EB51FF4F39C0491779
:1005400021F52093F0014F5F4093E400822F8EDD70
:10055000E8EEF0E0D50180818D93319780E0E43EB4
:10056000F807C9F789819A81AB81BC818C159D05FB
:10057000AE05BF0529F48BE790E0DBD111E0E4C0C4
:1005800087E890E0D6D110E0DFC08091F00183FFD2
:1005900016C0692F70E0E42FF0E0CB01880F991F9F
:1005A0008E179F0764F03197E61BF70BEE50FE4F56
:1005B00020834F5F4093E400822F58DDC5C04F3F3A
:1005C00029F00093E4002093F000F6CF112309F402
:1005D000B8C0E091F101F0E0EF50FF4F2083822F8F
:1005E00045DD2091F10130E08091F00090E001972D
:1005F0002817390709F09DC080E038DD80E036DD3E
:100600001092F1011092E4008091EE009091EF00C1
:10061000892B09F060CF8091F100873639F4609121
:10062000F0016695637081E090E09CDE8091F100BE
:10063000803779F46091F0016695637082E090E014
:1006400091DEC3010197F1F7E0919B00F0919C00CE
:1006500009958091F100833709F06BC08091F30018
:10066000813069F48091F400882319F481E060E01E
:10067000A8DD8091F400813011F461E0A2DD809169
:10068000F300823071F48091F400882319F482E041
:1006900060E097DD8091F400813019F482E061E040
:1006A00090DD8091F300833071F48091F400882311
:1006B00019F483E060E085DD8091F400813019F465
:1006C00083E061E07EDD8091F300843071F48091FD
:1006D000F400882319F484E060E073DD8091F40075
:1006E000813019F484E061E06CDD8091F3008530A5
:1006F00071F48091F400882319F485E060E061DDF5
:100700008091F400813019F485E061E05ADD809138
:10071000F300863071F48091F400882319F486E0A8
:1007200060E04FDD8091F400813019F486E061E0F3
:1007300048DD8091F1018F3F09F4CDCE8F5F80932A
:10074000F10187E990E0F5D089E990E0F2D0C3CEDD
:100750001F920F920FB60F9211242F938F939F9396
:10076000EF93FF939BB12CB1E091E100EF5FEF714C
:100770008091E200E81711F482E008C0892F8871A7
:10078000E093E100F0E0E154FF4F20838093E30029
:10079000FF91EF919F918F912F910F900FBE0F902E
:1007A0001F9018951F920F920FB60F9211248F93DE
:1007B0009F93EF93FF939091DF008091E000981753
:1007C00061F0E091E000EF5FEF71E093E000F0E0B6
:1007D000E156FF4F80818CB901C05598FF91EF9190
:1007E0009F918F910F900FBE0F901F9018959C01B5
:1007F0001092DF001092E0001092E1001092E200EF
:1008000097FF03C082E08BB93F7730BD29B988E9F3
:100810008AB986E880BD08959091E1008091E20058
:10082000981719F420E031E012C0E091E200EF5F88
:10083000EF71E093E200F0E0E154FF4F308120914E
:10084000E300922F80E0AC01430F511D9A01C901D2
:100850000895282F9091DF009F5F9F718091E000A5
:100860009817E1F3E92FF0E0E156FF4F20839093D2
:10087000DF00559A0895DC0111C09091DF009F5F61
:100880009F718091E0009817E1F31196E92FF0E055
:10089000E156FF4F20839093DF00559A2C9122233D
:1008A00061F70895AC0110C02091DF002F5F2F7118
:1008B0008091E0002817E1F3E22FF0E0E156FF4FCE
:1008C00090832093DF00559AFA014F5F5F4F949118
:1008D000992351F708958091E1002091E20090E082
:1008E0004F96821B91096FE170E05ED00895809170
:1008F000E2008093E10008958CB59DB501969BBD03
:100900008ABD80EC8FBD81E88EBD80E288BF80E328
:1009100089BF1092F701B99A0895982F8091F70135
:100920008823E1F790959093F6018AE08093F70190
:100930000895FC012AE00AC08091F7018823E1F7BD
:10094000319690959093F6012093F7019081992329
:1009500099F708951F920F920FB60F9211248F935B
:100960009F938AB59BB58F5B9C4F9BBD8ABD809141
:10097000F701882391F081508093F701893011F4B9
:1009800090E80AC08091F60180FD02C090EC01C0A1
:1009900090E886958093F6019FBD9F918F910F906F
:1009A0000FBE0F901F90189597FB092E07260AD0AF
:1009B00077FD04D00CD006D000201AF47095619514
:1009C0007F4F0895F6F7909581959F4F0895AA1B44
:1009D000BB1B51E107C0AA1FBB1FA617B70710F02A
:1009E000A61BB70B881F991F5A95A9F7809590955C
:0A09F000BC01CD010895F894FFCF7B
:1009FA000A0D486965722069737420646965205418
:100A0A006573742D4170702E2E2E000A4164726532
:100A1A00737365204F4B000A4164726573736520D6
:0E0A2A0046616C736368002A002300000C0014
:00000001FF
