:1000000012C02CC02BC02AC029C028C02FC526C0B2
:1000100025C024C023C028C451C420C01FC01EC096
:100020001DC01CC01BC011241FBECFE5D4E0DEBF25
:10003000CDBF10E0A0E6B0E0E2E1FBE002C0059039
:100040000D92AE39B107D9F711E0AEE9B0E001C0C9
:100050001D92A83FB107E1F7D0D259C5D1CF8FEF9C
:100060009FEF9093EF008093EE0008954091EE0093
:100070005091EF0090E062E070E19A01220F331F8F
:1000800087FD216057FD02C0A90103C0A9014627D1
:1000900057279F5F983011F0880FEFCF5093EF00F4
:1000A0004093EE000895813021F483B3282F30E08F
:1000B00035C0823031F483B3282F30E03695279550
:1000C0002DC0833041F483B3282F30E03695279537
:1000D0003695279523C0843049F483B3282F30E028
:1000E000B3E036952795BA95E1F718C0853049F405
:1000F00083B3282F30E0A4E036952795AA95E1F741
:100100000DC0863019F02FEF3FEF0AC083B3282FC0
:1001100030E0F5E036952795FA95E1F721703070DB
:10012000C9010895DC01FB019B012C5F3F4F139631
:100130008C91139781931197E217F307C1F70895F4
:10014000E0EAFFE03197F1F710D408951F93182FDC
:100150008C5F833038F480EA9FE00197F1F78CEFF1
:1001600004D41F7780EA9FE00197F1F7812FFDD338
:100170001F910895EF92FF920F931F93CF93DF93F8
:10018000F62EE42E80E09DE70197F1F7929A8AE13E
:100190008093F0011092F0008FEF9FEF9093EF00AB
:1001A0008093EE0080EA9FE00197F1F78DEFDDD3B9
:1001B0008DEF5CDF80E0CADF80E058DF80E0C6DFE3
:1001C00080E054DF80E0C2DF80E050DF80E0BEDF0F
:1001D00080E04CDF8091F001B9DF8091F00146DFD3
:1001E00084E08093F00005EE10E0C0E0D0E008C0AD
:1001F000F8018081ABDFF80181918F0137DF219613
:100200008091F00090E0C817D90794F300EA1FE04E
:10021000C8010197F1F784E0A8D384E027DFC80183
:100220000197F1F78F2DA1D38F2D20DFC801019702
:10023000F1F78E2D9AD38E2D19DF80E017DF80E045
:1002400015DF8091EF0082DFC8010197F1F78091FF
:10025000EE007CDF80E89EE30197F1F79298DF9152
:10026000CF911F910F91FF90EF9008950F931F93DF
:10027000CF93DF93182F80E09DE70197F1F7929AD3
:1002800089E18093F0011092F0008FEF9FEF90933F
:10029000EF008093EE0080EA9FE00197F1F78DEF89
:1002A00064D38DEFE3DE80E051DF80E0DFDE80E0CD
:1002B0004DDF80E0DBDE80E049DF80E0D7DE80E0FC
:1002C00045DF80E0D3DE8091F00140DF8091F001D6
:1002D000CDDE1093F000C5EED0E000E010E006C0E7
:1002E000888134DF8991C2DE0F5F1F4F8091F0005B
:1002F00090E008171907A4F300EA1FE0C80101976E
:10030000F1F782E032D382E0B1DE80E0AFDE80E060
:10031000ADDE8091EF001ADFC8010197F1F78091FF
:10032000EE0014DF80E89EE30197F1F79298DF91E9
:10033000CF911F910F910895813001F5613069F4DB
:100340009899C3C0949888E893E120E931E0F901D5
:100350003197F1F70197D9F70FC0662309F0B5C0BF
:10036000989BB3C0949888E893E120E931E0F901C3
:100370003197F1F70197D9F7949AA7C0823001F528
:10038000613069F49999A1C0959888E893E120E9D2
:1003900031E0F9013197F1F70197D9F70FC06623E2
:1003A00009F093C0999B91C0959888E893E120E962
:1003B00031E0F9013197F1F70197D9F7959A85C0A6
:1003C000833001F5613069F49A997FC0969888E886
:1003D00093E120E931E0F9013197F1F70197D9F77D
:1003E0000FC0662309F071C09A9B6FC0969888E889
:1003F00093E120E931E0F9013197F1F70197D9F75D
:10040000969A63C0843001F5613069F49B995DC0B0
:10041000979888E893E120E931E0F9013197F1F705
:100420000197D9F70FC0662309F04FC09B9B4DC0C1
:10043000979888E893E120E931E0F9013197F1F7E5
:100440000197D9F7979A41C08530F9F4613069F482
:100450009C993BC0C39888E893E120E931E0F90119
:100460003197F1F70197D9F70EC0662371F59C9B80
:100470002CC0C39888E893E120E931E0F901319775
:10048000F1F70197D9F7C39A20C08630F1F46130B3
:1004900069F49D991AC0C49888E893E120E931E095
:1004A000F9013197F1F70197D9F70EC0662369F486
:1004B0009D9B0BC0C49888E893E120E931E0F901E5
:1004C0003197F1F70197D9F7C49A6091F0016695D9
:1004D000637084E090E0CADE0895EF92FF920F937C
:1004E0001F93CF93DF937C0180E09DE70197F1F7A5
:1004F000929A70E06370707025E0660F771F2A95FE
:10050000E1F761616093F0011092F0008FEF9FEFCF
:100510009093EF008093EE0000EA1FE0C80101977E
:10052000F1F78EEF22D28EEFA1DDC8010197F1F72E
:1005300080E01BD280E09ADD8091F00107DE80919F
:10054000F00194DD82E0E816F10441F482E080934A
:10055000F0001092F10080E48093F2008091F000AE
:100560008E5FF4DD8091F0008E5F80DD01EF10E0A2
:10057000C0E0D0E008C0F8018081E8DDF801819199
:100580008F0174DD21968091F00090E0C817D907A3
:1005900094F380E06BDD80E069DD8091EF00D6DDD3
:1005A00080EA9FE00197F1F78091EE00CFDD80E8CF
:1005B0009EE30197F1F79298DF91CF911F910F91F0
:1005C000FF90EF9008958A9A8C9A8D9A8E9A8F9ABE
:1005D000BB9ABC9AA098A198A298A398A498A59811
:1005E0009298949A959A969A979AC39AC49A83E302
:1005F00090E089D10DD2789408952F923F924F9236
:100600005F926F927F928F929F92AF92BF92CF92A2
:10061000DF92EF92FF920F931F93DF93CF9300D05F
:1006200000D0CDB7DEB7CFDF80E690E00ED2ECEFA2
:10063000FFE1A590B590C590D490FF2460E8462EC8
:100640006EE3562E50E9252E51E0352E3E010894DA
:10065000611C711C44E0E42E88248A94982C68D193
:100660009C0190FDFCCF8C3F910541F480919E0050
:100670008823B1F481E080939E00F1CF8D3F9105F6
:1006800079F410929E001092E400E092ED00109236
:10069000F1019092EF008092EE008DEFE7DCDFCF6A
:1006A00080919E00813019F4206810929E00409144
:1006B000E4009091ED00491728F4E42FF0E0EB51AD
:1006C000FF4F3AC0491729F52093F0014F5F40933F
:1006D000E400822FCBDCE8EEF0E0D30180818D9343
:1006E000319780E0E43EF807C9F789819A81AB81B0
:1006F000BC818A159B05AC05BD0531F48BE790E004
:10070000A4D1FF24F394ACC087E890E09ED1FF24ED
:10071000A7C08091F00183FF16C0692F70E0E42F1D
:10072000F0E0CB01880F991F8E179F0764F0319777
:10073000E61BF70BEE50FE4F20834F5F4093E40023
:10074000822F94DC8DC04F3F31F08FEF8093E40017
:100750002093F000F5CFFF2009F47FC0E091F10174
:10076000F0E0EF50FF4F2083822F80DC2091F101D9
:1007700030E08091F00090E001972817390709F0E8
:1007800064C080E073DC80E071DC1092F1011092B3
:10079000E4008091EE009091EF00892B09F05FCF8B
:1007A0008091F100833589F42091F200022F10E04E
:1007B000C8010197069748F4822F75DCAC0180913F
:1007C000F00186958370B801D5DC8091F100873601
:1007D00039F46091F0016695637081E090E07DDE10
:1007E0008091F1008037C1F4C2010197F1F7609167
:1007F000F0016695637082E090E06FDE949888E87F
:1008000093E1F1013197F1F70197D9F7949AE091CB
:100810009B00F0919C0009958091F1008337A9F429
:100820009091F300892F8150863078F48091F40004
:10083000882319F4892F60E07FDD8091F4008130F6
:1008400021F48091F30061E077DD8091F1018F3F29
:1008500009F405CF8F5F8093F10187E990E0F5D02F
:1008600089E990E0F2D0FBCE1F920F920FB60F9263
:1008700011242F938F939F93EF93FF939BB12CB1F0
:10088000E091E100EF5FEF718091E200E81711F471
:1008900082E008C0892F8871E093E100F0E0E15424
:1008A000FF4F20838093E300FF91EF919F918F9101
:1008B0002F910F900FBE0F901F9018951F920F92BF
:1008C0000FB60F9211248F939F93EF93FF93909104
:1008D000DF008091E000981761F0E091E000EF5FA9
:1008E000EF71E093E000F0E0E156FF4F80818CB9BA
:1008F00001C05598FF91EF919F918F910F900FBE7E
:100900000F901F9018959C011092DF001092E0004C
:100910001092E1001092E20097FF03C082E08BB9D1
:100920003F7730BD29B988E98AB986E880BD089546
:100930009091E1008091E200981719F420E031E0F5
:1009400012C0E091E200EF5FEF71E093E200F0E0AF
:10095000E154FF4F30812091E300922F80E0AC0101
:10096000430F511D9A01C9010895282F9091DF006E
:100970009F5F9F718091E0009817E1F3E92FF0E00D
:10098000E156FF4F20839093DF00559A0895DC01D4
:1009900011C09091DF009F5F9F718091E0009817D8
:1009A000E1F31196E92FF0E0E156FF4F2083909399
:1009B000DF00559A2C91222361F70895AC0110C0F5
:1009C0002091DF002F5F2F718091E0002817E1F365
:1009D000E22FF0E0E156FF4F90832093DF00559A1D
:1009E000FA014F5F5F4F9491992351F708958091D9
:1009F000E1002091E20090E04F96821B91096FE1A7
:100A000070E05ED008958091E2008093E100089547
:100A10008CB59DB501969BBD8ABD80EC8FBD81E8EC
:100A20008EBD80E288BF80E389BF1092F701B99A3A
:100A30000895982F8091F7018823E1F7909590937E
:100A4000F6018AE08093F7010895FC012AE00AC0CC
:100A50008091F7018823E1F7319690959093F60104
:100A60002093F7019081992399F708951F920F928F
:100A70000FB60F9211248F939F938AB59BB58F5B0E
:100A80009C4F9BBD8ABD8091F701882391F08150D6
:100A90008093F701893011F490E80AC08091F60143
:100AA00080FD02C090EC01C090E886958093F6012D
:100AB0009FBD9F918F910F900FBE0F901F90189523
:100AC00097FB092E07260AD077FD04D00CD006D05C
:100AD00000201AF4709561957F4F0895F6F7909570
:100AE00081959F4F0895AA1BBB1B51E107C0AA1F08
:100AF000BB1FA617B70710F0A61BB70B881F991FBF
:100B00005A95A9F780959095BC01CD010895F89468
:020B1000FFCF15
:100B12000A0D4869657220697374206469652054FE
:100B22006573742D4170702E2E2E000A4164726519
:100B3200737365204F4B000A4164726573736520BD
:0E0B420046616C736368002A002300000C00FB
:00000001FF
