:1000000012C02CC02BC02AC029C028C042C426C0A0
:1000100025C024C023C03BC364C320C01FC01EC072
:100020001DC01CC01BC011241FBECFE5D4E0DEBF25
:10003000CDBF10E0A0E6B0E0E8E3F9E002C0059033
:100040000D92AE39B107D9F711E0AEE9B0E001C0C9
:100050001D92A83FB107E1F790D16CC4D1CF8FEFCB
:100060009FEF9093EF008093EE0008954091EE0093
:100070005091EF0090E062E070E19A01220F331F8F
:1000800087FD216057FD02C0A90103C0A9014627D1
:1000900057279F5F983011F0880FEFCF5093EF00F4
:1000A0004093EE000895813001F5613069F498992C
:1000B000C4C0949888E893E120E931E0F9013197D0
:1000C000F1F70197D9F70FC0662309F0B6C0989BE6
:1000D000B4C0949888E893E120E931E0F9013197C0
:1000E000F1F70197D9F7949A0895823001F56130BC
:1000F00069F49999A2C0959888E893E120E931E0E4
:10010000F9013197F1F70197D9F70FC0662309F08C
:1001100094C0999B92C0959888E893E120E931E0DA
:10012000F9013197F1F70197D9F7959A089583303E
:1001300001F5613069F49A9980C0969888E893E156
:1001400020E931E0F9013197F1F70197D9F70FC0B4
:10015000662309F072C09A9B70C0969888E893E174
:1001600020E931E0F9013197F1F70197D9F7969A33
:100170000895843001F5613069F49B995EC09798C9
:1001800088E893E120E931E0F9013197F1F701972F
:10019000D9F70FC0662309F050C09B9B4EC09798BB
:1001A00088E893E120E931E0F9013197F1F701970F
:1001B000D9F7979A08958530F9F4613069F49C99DC
:1001C0003CC0C39888E893E120E931E0F901319718
:1001D000F1F70197D9F70EC0662379F59C9B2DC0E6
:1001E000C39888E893E120E931E0F9013197F1F70C
:1001F0000197D9F7C39A08958630F9F4613071F404
:100200009D991BC0C49888E893E120E931E0F90189
:100210003197F1F70197D9F7C49A0895662369F4E5
:100220009D9B0BC0C49888E893E120E931E0F90177
:100230003197F1F70197D9F7C49A0895DC01FB01D2
:100240009B012C5F3F4F13968C91139781931197CD
:10025000E217F307C1F708959BD208951F93182F53
:100260008C5F833018F48CEF93D21F77812F90D25C
:100270001F9108950F931F93CF93DF938C0180E01C
:100280009DE70197F1F7929A70E063707070F5E066
:10029000660F771FFA95E1F761616093F0011092A4
:1002A000F0008FEF9FEF9093EF008093EE008EEFC2
:1002B0006FD28EEFDBDE80E06BD280E0D7DE809104
:1002C000F001CCDF8091F001D1DE0230110541F464
:1002D00082E08093F0001092F10080E48093F200BD
:1002E0008091F0008E5FBADF8091F0008E5FBEDEFD
:1002F00001EF10E0C0E0D0E008C0F8018081AEDF7F
:10030000F80181918F01B2DE21968091F00090E09A
:10031000C817D90794F380E0A9DE80E0A7DE8091BA
:10032000EF009CDF80EA9FE00197F1F78091EE00FB
:1003300095DF80E89EE30197F1F79298DF91CF91E6
:100340001F910F9108958A9A8C9A8D9A8E9A8F9AFE
:10035000BB9ABC9AA098A198A298A398A498A59893
:100360009298949A959A969A979AC39AC49A83E384
:1003700090E0DCD160D2789408954F925F926F92B2
:100380007F928F929F92AF92BF92CF92DF92EF9225
:10039000FF920F931F93DF93CF9300D000D0CDB780
:1003A000DEB7D1DF80E690E063D2ECEFFFE1C590ED
:1003B000D590E590F49010E000E8802E0EE3902EAA
:1003C00044244A943E010894611C711C01E0B4E08D
:1003D0005B2EAA24AA94BA2CBED19C0190FDFCCF1E
:1003E0008C3F910539F480919E008823A9F40093F5
:1003F0009E00F2CF8D3F910579F410929E001092ED
:10040000E4005092ED001092F101B092EF00A09242
:10041000EE008DEF2BDEE0CF80919E00813019F44D
:10042000206810929E004091E4009091ED004917E1
:1004300028F4E42FF0E0EB51FF4F39C0491721F5C4
:100440002093F0014F5F4093E400822F0FDEE8EE2F
:10045000F0E0D30180818D93319780E0E43EF8078E
:10046000C9F789819A81AB81BC818C159D05AE0548
:10047000BF0529F48BE790E0FBD111E004C187E8C8
:1004800090E0F6D110E0FFC08091F00183FF16C02C
:10049000692F70E0E42FF0E0CB01880F991F8E17D1
:1004A0009F0764F03197E61BF70BEE50FE4F208359
:1004B0004F5F4093E400822FD9DDE5C04F3F29F024
:1004C0004092E4002093F000F6CF112309F4D8C045
:1004D000E091F101F0E0EF50FF4F2083822FC6DD65
:1004E0002091F10130E08091F00090E00197281711
:1004F000390709F0BDC080E0B9DD80E0B7DD1092BA
:10050000F1011092E4008091EE009091EF00892BB0
:1005100009F062CF8091F100873639F46091F001E3
:100520006695637081E090E0A5DE8091F1008037F0
:1005300079F46091F0016695637082E090E09ADE54
:10054000C4010197F1F7E0919B00F0919C0009959F
:100550008091F100833709F08BC06091F0016695BE
:10056000637082E090E086DE8091F300813091F448
:100570008091F400882329F481E090E060E070E04D
:1005800092DD8091F400813029F481E090E061E017
:1005900070E089DD8091F300823091F48091F40065
:1005A000882329F482E090E060E070E07CDD8091B7
:1005B000F400813029F482E090E061E070E073DDC6
:1005C0008091F300833091F48091F400882329F422
:1005D00083E090E060E070E066DD8091F4008130BF
:1005E00029F483E090E061E070E05DDD8091F3004C
:1005F000843091F48091F400882329F484E090E021
:1006000060E070E050DD8091F400813029F484E0F6
:1006100090E061E070E047DD8091F300853091F477
:100620008091F400882329F485E090E060E070E098
:100630003ADD8091F400813029F485E090E061E0BA
:1006400070E031DD8091F300863091F48091F40008
:10065000882329F486E090E060E070E024DD80915A
:10066000F400813029F486E090E061E070E01BDD69
:100670008091F1018F3F09F4AFCE8F5F8093F1013C
:1006800087E990E0F5D089E990E0F2D0A5CE1F92FD
:100690000F920FB60F9211242F938F939F93EF9386
:1006A000FF939BB12CB1E091E100EF5FEF7180917E
:1006B000E200E81711F482E008C0892F8871E09306
:1006C000E100F0E0E154FF4F20838093E300FF91CD
:1006D000EF919F918F912F910F900FBE0F901F90D0
:1006E00018951F920F920FB60F9211248F939F931C
:1006F000EF93FF939091DF008091E000981761F0F5
:10070000E091E000EF5FEF71E093E000F0E0E15690
:10071000FF4F80818CB901C05598FF91EF919F9157
:100720008F910F900FBE0F901F9018959C01109203
:10073000DF001092E0001092E1001092E20097FFBB
:1007400003C082E08BB93F7730BD29B988E98AB907
:1007500086E880BD08959091E1008091E2009817AD
:1007600019F420E031E012C0E091E200EF5FEF7198
:10077000E093E200F0E0E154FF4F30812091E3008C
:10078000922F80E0AC01430F511D9A01C9010895D9
:10079000282F9091DF009F5F9F718091E000981754
:1007A000E1F3E92FF0E0E156FF4F20839093DF0063
:1007B000559A0895DC0111C09091DF009F5F9F71F1
:1007C0008091E0009817E1F31196E92FF0E0E156EF
:1007D000FF4F20839093DF00559A2C91222361F7DD
:1007E0000895AC0110C02091DF002F5F2F71809120
:1007F000E0002817E1F3E22FF0E0E156FF4F90838D
:100800002093DF00559AFA014F5F5F4F949199232F
:1008100051F708958091E1002091E20090E04F9619
:10082000821B91096FE170E05ED008958091E20033
:100830008093E10008958CB59DB501969BBD8ABD5E
:1008400080EC8FBD81E88EBD80E288BF80E389BFE8
:100850001092F701B99A0895982F8091F701882393
:10086000E1F790959093F6018AE08093F70108955F
:10087000FC012AE00AC08091F7018823E1F7319654
:1008800090959093F6012093F7019081992399F721
:1008900008951F920F920FB60F9211248F939F937A
:1008A0008AB59BB58F5B9C4F9BBD8ABD8091F7013C
:1008B000882391F081508093F701893011F490E8FA
:1008C0000AC08091F60180FD02C090EC01C090E862
:1008D00086958093F6019FBD9F918F910F900FBEDB
:1008E0000F901F90189597FB092E07260AD077FDC9
:1008F00004D00CD006D000201AF4709561957F4F7B
:100900000895F6F7909581959F4F0895AA1BBB1BFC
:1009100051E107C0AA1FBB1FA617B70710F0A61BFF
:10092000B70B881F991F5A95A9F780959095BC0120
:08093000CD010895F894FFCFFA
:100938000A0D4869657220697374206469652054DA
:100948006573742D4170702E2E2E000A41647265F5
:10095800737365204F4B000A416472657373652099
:0E09680046616C736368002A002300000C00D7
:00000001FF
