:1000000012C02CC02BC02AC029C028C061C026C085
:1000100025C024C023C022C021C020C01FC01EC0D4
:100020001DC01CC01BC011241FBECFE5D4E0DEBF25
:10003000CDBF10E0A0E6B0E0E8E2F1E002C005903C
:100040000D92A237B107D9F710E0A2E7B0E001C0E6
:100050001D92A437B107E1F702D064C0D1CF09D017
:10006000789480E690E021D08EE214D080E090E099
:1000700008958CB59DB501969BBD8ABD80EC8FBD62
:1000800081E88EBD80E288BF80E389BF1092730053
:10009000B99A0895909173009923E1F78095809320
:1000A00072008AE0809373000895EF92FF92CF93DD
:1000B000DF93E82EE7017E01F92EE70101C0EADFB8
:1000C00089918823E1F7DF91CF91FF90EF90089518
:1000D0001F920F920FB60F9211248F939F938AB5A0
:1000E0009BB58F5B9C4F9BBD8ABD8091730088231D
:1000F00091F0815080937300893059F09091720093
:1001000090FF02C080E801C080EC96959093720049
:1001100001C080E88FBD9F918F910F900FBE0F900F
:080120001F901895F894FFCF21
:1001280048616C6C6F2041546D6567613820210A05
:020138000D00B8
:00000001FF
