:1000000012C02CC02BC02AC029C028C06FC326C074
:1000100025C024C023C06FC29AC220C01FC01EC00A
:100020001DC01CC01BC011241FBECFE5D4E0DEBF25
:10003000CDBF11E0A0E6B0E0E6E4F7E002C0059035
:100040000D92A435B107D9F712E0A4E5B1E001C0E3
:100050001D92AE3AB107E1F721D173C3D1CF8FEF33
:100060009FEF9093A5018093A40108954091A4016E
:100070005091A50190E062E070E107C057FD0DC00E
:10008000A9019F5F983079F0880F9A01220F331FE2
:1000900087FFF4CF216057FFF3CFA90146275727E9
:1000A0009F5F983089F75093A5014093A40108956C
:1000B000813041F0C09A613041F0C59A413041F041
:1000C000C29A0895C0986130C1F7C5984130C1F710
:1000D000C2980895882399F08130B1F08230F1F010
:1000E000833009F18430A9F0853061F1863079F1EF
:1000F000873091F18830E1F08930F9F00895A898BF
:10010000A998AA98AB980895A89AA998AA98AB9884
:100110000895A898A998AA9AAB980895A898A99A1A
:10012000AA98AB980895A89AA99AAA98AB98089506
:10013000A898A998AA98AB9A0895A89AA998AA9855
:10014000AB9A0895A89AA998AA9AAB980895A898E6
:10015000A99AAA9AAB980895A89AA99AAA9AAB982C
:100160000895DC01FB019B012C5F3F4F13968C919E
:10017000139781931197E217F307C1F708953FD2C0
:1001800008951F93182F8C5F833018F48CEF37D2AB
:100190001F77812F34D21F9108950F931F93CF9310
:1001A000DF938C0180E09DE70197F1F7929A82E559
:1001B0008093A60280E690E086D21092A6018FEF8F
:1001C0009FEF9093A5018093A4018EEF18D28EEF3C
:1001D0004DDF80E014D280E049DF8091A602D1DFBC
:1001E0008091A60243DF02301105B1F18091A60192
:1001F0008E5FC7DF8091A6018E5F38DF8091A601F8
:10020000882391F007EA11E0C0E0D0E0F801808196
:10021000B8DFF80181918F0129DF21968091A60135
:1002200090E0C817D90794F380E020DF80E01EDF5C
:100230008091A501A6DF80EA9FE00197F1F7809108
:10024000A4019FDF80E89EE30197F1F79298DF9188
:10025000CF911F910F91089582E08093A601109293
:10026000A70180E48093A801C1CF8C9A8D9A8A9AC5
:10027000B89ABD9ABA9AA09AA19AA29AA39A80E033
:1002800090E028DF959A929881E061E041E010DFEC
:1002900083E390E081D1FAD178940895AF92BF9230
:1002A000CF92DF92EF92FF920F931F93DF93CF9342
:1002B00000D000D0CDB7DEB7D8DF789484E790E0E7
:1002C00002D280E061E040E0F3DE7E010894E11CB0
:1002D000F11C10E8C12E1EE3D12EBB24BA94B4E069
:1002E000AB2E0FEF1FEF6FD19C0190FDFCCF8C3F29
:1002F000910581F18D3F910509F464C0809154010D
:10030000813009F440C040919A019091A3014917AE
:1003100048F1491709F46BC08091A60283FF0BC016
:10032000692F70E0E42FF0E0CB01880F991F8E1742
:100330009F070CF084C04F3F51F1B0929A01209377
:10034000A601822F93DE8AE091E0BDD186E090E0A5
:10035000C1DEC9CF80915401882391F681E080935A
:100360005401C1CFE42FF0E0E556FE4F20834F5FEC
:1003700040939A01822F7ADE82EB90E0A4D182E052
:1003800090E0A8DEB0CF206810925401BCCFE0917D
:10039000A702F0E0E955FE4F2083822F67DE4091EF
:1003A000A702242F30E08091A60190E00197281742
:1003B000390709F45BC04F3F09F453C04F5F4093C6
:1003C000A70291CF1092540110929A01A092A3011A
:1003D0001092A7021093A5010093A4018DEF46DEB1
:1003E00089E990E070D181E090E074DE7CCF2093C9
:1003F000A6024F5F40939A01822F38DEEEE9F1E0CA
:10040000D70180818D93319721E0EA39F207C9F74E
:100410008EEC90E058D183E090E05CDE89819A8197
:10042000AB81BC8188529041A040B04009F05BCFC5
:1004300086EE90E048D184E090E04CDE54CF3197D6
:10044000E61BF70BE855FD4F20834F5F40939A0161
:10045000822F0CDE82EF90E036D185E090E03ADE2C
:1004600042CF81E060E040E023DE3DCF80E0FEDD72
:1004700080E0FCDD1092A70210929A0181E291E0E7
:1004800022D187E090E026DE8091A4019091A50121
:10049000892B39F788E090E01DDE8091A701803735
:1004A00029F0873601F14091A70285CF6091A6021D
:1004B0006695637082E090E070DE8BE391E003D19B
:1004C00089E090E007DEC6010197F1F780E060E087
:1004D00041E0EEDDE0915201F091530109958091E8
:1004E000A701873601F76091A6026695637081E0E7
:1004F00090E053DED8CF1F920F920FB60F921124C7
:100500002F938F939F93EF93FF939BB12CB1E09127
:100510009701EF5FEF7180919801E817B1F0987142
:10052000E0939701F0E0EB58FE4F20838091990112
:10053000982B90939901FF91EF919F918F912F911B
:100540000F900FBE0F901F90189592E0EFCF1F9263
:100550000F920FB60F9211248F939F93EF93FF93F7
:1005600090919501809196019817A1F0E0919601E4
:10057000EF5FEF71E0939601F0E0EB5AFE4F808160
:100580008CB9FF91EF919F918F910F900FBE0F90BB
:100590001F9018955598F5CF9C01109295011092D7
:1005A0009601109297011092980197FF03C082E084
:1005B0008BB93F7730BD29B988E98AB986E880BD13
:1005C00086EA80BD089590919701809198019817CF
:1005D00091F0E0919801EF5FEF71E0939801F0E006
:1005E000EB58FE4F80819091990110929901282F2C
:1005F00030E0C901089520E031E0C9010895282FB5
:10060000909195019F5F9F71809196019817E1F3FA
:10061000E92FF0E0EB5AFE4F208390939501559A15
:100620000895DC012C912223A1F01196909195015F
:100630009F5F9F71809196019817E1F3E92FF0E099
:10064000EB5AFE4F208390939501559A2C912223CB
:1006500061F70895FC0144914423B9F09C012F5F98
:100660003F4F909195019F5F9F71809196019817E0
:10067000E1F3E92FF0E0EB5AFE4F408390939501B0
:10068000559AF9014491442351F708958CB59DB5CD
:1006900001969BBD8ABD80EC8FBD81E88EBD80E256
:1006A00088BF80E389BF1092AD02B99A0895982F50
:1006B0008091AD028823E1F790959093AC028AE097
:1006C0008093AD020895FC019081992371F02AE096
:1006D00031968091AD028823E1F790959093AC021A
:1006E0002093AD029081992399F708951F920F925C
:1006F0000FB60F9211248F939F938AB59BB58F5B92
:100700009C4F9BBD8ABD8091AD02882371F08150C2
:100710008093AD02893091F08091AC0280FF0CC0D3
:1007200090E886958093AC029FBD9F918F910F902A
:100730000FBE0F901F90189590ECF3CF90E89FBDDF
:06074000F4CFF894FFCF96
:100746000A53656E6420436F6E74726F6C627974BF
:10075600653A20000A0D4869657220697374206441
:10076600617320416E77656E64756E677370726F24
:100776006772616D6D2E2E2E000A0D5374617274B0
:100786007A65696368656E20656D7066616E67651A
:100796006E000A5A69656C2D4164726573736279DD
:1007A60074657320656D7066616E67656E000A43D9
:1007B6006F6E74726F6C6C6279746520656D7066AD
:1007C600616E67656E000A41647265737365204FDA
:1007D6004B000A436F6E74726F6C6C62797465209D
:1007E60061757377657274656E000A446174656E2F
:1007F6006C61656E676520656D7066616E67656EB6
:10080600000A446174656E206B6F6D706C6574745C
:1008160020656D7066616E67656E000A537072754D
:100826006E67207A756D20426F6F746C6F616465B8
:040836007200000C40
:00000001FF
