:1018000012C02CC02BC02AC029C028C07CC326C04F
:1018100025C024C023C07CC2A7C220C01FC01EC0D8
:101820001DC01CC01BC011241FBECFE5D4E0DEBF0D
:10183000CDBF10E0A0E6B0E0E0E6FFE102C0059019
:101840000D92A83DB107D9F711E0A8EDB0E001C0B5
:101850001D92A232B107E1F71FD180C3D1CFEF9221
:10186000FF921F93CF93DF93DA011FB7F894E199AA
:10187000FECFEB0183E0FB0187BFE89507B600FCD4
:10188000FDCFFE01AE01405C5F4F61E08C9111968F
:101890003C91119720E07901E80EF11C12960701A6
:1018A00067BFE89511243296E417F50779F785E0CC
:1018B000FE0187BFE89507B600FCFDCF81E187BF39
:1018C000E8951FBFDF91CF911F91FF90EF90089592
:1018D0008FEF9FEF90931F0180931E010895409119
:1018E0001E0150911F0190E062E070E107C057FDBA
:1018F0000DC0A9019F5F983079F0880F9A01220FDF
:10190000331F87FFF4CF216057FFF3CFA90146278C
:1019100057279F5F983089F750931F0140931E010E
:101920000895813041F0C39A613041F0949841307C
:1019300041F096980895C3986130C1F7949A413068
:10194000C1F7969A0895DC01FB019B012C5F3F4F84
:1019500013968C91139781931197E217F307C1F7B0
:1019600008958A9ABB9A8C9A8E9A92988FB7F89417
:101970009BB790931D01292F21602BBF92609BBFC5
:101980008FBF83E390E015D28ED2789480E690E00A
:10199000A7D280E060E041E0C4DF08953DD2089521
:1019A0001F93182F8C5F833018F48CEF35D21F777C
:1019B000812F32D21F910895EF92FF921F93DF93F0
:1019C000CF93CDB7DEB7CF5FD0400FB6F894DEBF70
:1019D0000FBECDBF7C01142FE0E0FDE73197F1F79A
:1019E000929A442371F4862F90E083709070880F50
:1019F000991F82959295907F9827807F9827182F1E
:101A000011618FEF9FEF90931F0180931E018EEF66
:101A100003D28EEF64DF80E0FFD180E060DF812FB2
:101A2000BFDF812F5CDF82E0E816F10421F182E064
:101A3000B7DF82E054DF80E052DF80E050DF80914A
:101A40001F01AEDF80EA9FE00197F1F780911E0150
:101A5000A7DF80E89EE30197F1F79298C150DF4F2E
:101A60000FB6F894DEBF0FBECDBFCF91DF911F91AF
:101A7000FF90EF900895198280E48A8384E090DFDC
:101A800084E02DDF1981812F8BDF812F28DF80E417
:101A900087DF80E424DFCFCF2F923F924F925F9277
:101AA0006F927F928F929F92AF92BF92CF92DF926E
:101AB000EF92FF920F931F93DF93CF93CDB7DEB7D3
:101AC000C750D2400FB6F894DEBF0FBECDBF49DF7E
:101AD000CC2410E000E0BB24DD248DE4282E312C42
:101AE0002C0E3D1EB4E08B2E912C8C0E9D1EA5E07D
:101AF0006A2E712C6C0E7D1E73D19C0190FDFCCF63
:101B00008C3F9105D1F08D3F910509F43FC0113014
:101B100009F10430B0F0043009F444C0C3FE05C03C
:101B2000802F90E009970CF45AC00F3FA9F0B22E15
:101B3000822FD5DE10E00FEFDFCF112359F411E033
:101B4000DBCFF301E00FF11D20830F5F822FC7DE93
:101B500010E0D2CF2068DDCFAA20B1F0ED2CFF2419
:101B6000E9E0F0E0EC0FFD1FEE0DFF1D2083822F5A
:101B7000B6DE8B2D90E00197E816F906A9F19FEFEC
:101B8000D91609F450C0D39410E0B6CF8FEF9FEF71
:101B900090931F0180931E018DEFA1DE10E000E005
:101BA000DD24AACFC22E822F9ADEFE013896DE01F6
:101BB000119680818D933197E815F905D1F78981C8
:101BC0009A81AB81BC8189529041A040B04019F10B
:101BD00080E890E085D1AA2410E005E08DCF0F5F6A
:101BE000822F7DDE10E088CF80E079DE80E077DE36
:101BF00080911E0190911F01892BD9F48985873628
:101C000009F446C08037C1F18737D9F000E0DD2400
:101C1000D39410E071CF84E790E062D1AA24A3941A
:101C200010E005E069CF81E060E040E07ADE10E09E
:101C300063CF81E060E040E074DE10E000E0DD248E
:101C40005BCF5A844B84FE013D96DE01A85FBE4FF8
:101C500081918D93E215F305D9F7B20180E090E010
:101C6000AE01485F5E4FFBDD6C2D6695637081E0D1
:101C700090E040E0A1DECACF6C2D6695637082E0F3
:101C800090E042E599DE80E89EE30197F1F7BECF50
:101C9000C69483E0C82282E090E06C2D40E08CDEA8
:101CA00080E990E01DD189EB90E01AD120E137E284
:101CB00040E951E0CA010197F1F721503040D1F7D6
:101CC000F8948BB780931D01982F91609BBF8D7FF7
:101CD0008BBFE0E0F0E0099580E090E0C95FDD4F68
:101CE0000FB6F894DEBF0FBECDBFCF91DF911F912D
:101CF0000F91FF90EF90DF90CF90BF90AF909F90AB
:101D00008F907F906F905F904F903F902F900895AD
:101D10001F920F920FB60F9211242F938F939F93C0
:101D2000EF93FF939BB12CB1E0911A01EF5FEF713C
:101D300080911B01E817B1F09871E0931A01F0E06F
:101D4000E850FF4F208380911C01982B90931C0139
:101D5000FF91EF919F918F912F910F900FBE0F9058
:101D60001F90189592E0EFCF1F920F920FB60F922F
:101D700011248F939F93EF93FF939091180180917B
:101D800019019817A1F0E0911901EF5FEF71E0934D
:101D90001901F0E0E852FF4F80818CB9FF91EF917B
:101DA0009F918F910F900FBE0F901F90189555988F
:101DB000F5CF9C01109218011092190110921A018E
:101DC00010921B0197FF03C082E08BB93F7730BDB3
:101DD00029B988E98AB986E880BD86EA80BD089578
:101DE00090911A0180911B01981791F0E0911B01CD
:101DF000EF5FEF71E0931B01F0E0E850FF4F80814F
:101E000090911C0110921C01282F30E0C901089507
:101E100020E031E0C9010895282F909118019F5FBB
:101E20009F71809119019817E1F3E92FF0E0E852D2
:101E3000FF4F208390931801559A0895DC012C914F
:101E40002223A1F01196909118019F5F9F718091BC
:101E500019019817E1F3E92FF0E0E852FF4F2083D2
:101E600090931801559A2C91222361F70895FC0153
:101E700044914423B9F09C012F5F3F4F909118018A
:101E80009F5F9F71809119019817E1F3E92FF0E0AE
:101E9000E852FF4F408390931801559AF9014491FD
:101EA000442351F708958CB59DB501969BBD8ABD1D
:101EB00080EC8FBD81E88EBD80E288BF80E389BF62
:101EC00010922101B99A0895982F809121018823B9
:101ED000E1F79095909320018AE080932101089585
:101EE000FC019081992371F02AE0319680912101C3
:101EF0008823E1F790959093200120932101908110
:101F0000992399F708951F920F920FB60F921124FB
:101F10008F939F938AB59BB58F5B9C4F9BBD8ABD6A
:101F200080912101882371F08150809321018930B3
:101F300091F08091200180FF0CC090E886958093FD
:101F400020019FBD9F918F910F900FBE0F901F900A
:101F5000189590ECF3CF90E89FBDF4CFF894FFCFA5
:101F60000A0D426F6F746C6F616465722053657403
:101F700075700A000A41647265737365204F4B00E7
:101F80000A416472657373652046616C736368000F
:101F90000A0D203078363720656D7066616E676592
:101FA0006E203D3D3E2050726F6772616D6D696EAF
:101FB0006720666572746967000A0D205370726944
:101FC0006E6765207A75722041647265737365204F
:081FD000307830303030210080
:0400000300001800E1
:00000001FF
