:1018000012C02CC02BC02AC029C028C066C326C065
:1018100025C024C023C066C291C220C01FC01EC004
:101820001DC01CC01BC011241FBECFE5D4E0DEBF0D
:10183000CDBF10E0A0E6B0E0E4E3FFE102C0059018
:101840000D92AC3BB107D9F711E0ACEBB0E001C0B1
:101850001D92A630B107E1F71CD16AC3D1CFEF9238
:10186000FF921F93CF93DF93DA011FB7F894E199AA
:10187000FECFEB0183E0FB0187BFE89507B600FCD4
:10188000FDCFFE01AE01405C5F4F61E08C9111968F
:101890003C91119720E07901E80EF11C12960701A6
:1018A00067BFE89511243296E417F50779F785E0CC
:1018B000FE0187BFE89507B600FCFDCF81E187BF39
:1018C000E8951FBFDF91CF911F91FF90EF90089592
:1018D0008FEF9FEF90930301809302010895409151
:1018E00002015091030190E062E070E107C057FDF2
:1018F0000DC0A9019F5F983079F0880F9A01220FDF
:10190000331F87FFF4CF216057FFF3CFA90146278C
:1019100057279F5F983089F7509303014093020146
:101920000895813041F0C09A613041F0C59A41304C
:1019300041F0C29A0895C0986130C1F7C59841300E
:10194000C1F7C2980895DC01FB019B012C5F3F4F5A
:1019500013968C91139781931197E217F307C1F7B0
:1019600008958C9A8D9A8A9AB89ABD9ABA9A959A3D
:1019700092988FB7F8949BB790930101292F21601B
:101980002BBF92609BBF8FBF83E390E0FCD175D2E9
:10199000789480E690E08ED280E060E041E0C1DFA4
:1019A000089524D208951F93182F8C5F833018F464
:1019B0008CEF1CD21F77812F19D21F910895EF92BF
:1019C000FF920F931F93DF93CF93CDB7DEB7CF5F17
:1019D000D0400FB6F894DEBF0FBECDBF7C01062FFE
:1019E00080E09DE70197F1F7929A10E00370107084
:1019F000000F111F02951295107F1027007F1027EE
:101A000001618FEF9FEF90930301809302018EEFAE
:101A1000EDD18EEF64DF80E0E9D180E060DF802FE0
:101A2000C2DF802F5CDF82E0E816F10409F182E07A
:101A3000BADF82E054DF80E052DF80E050DF809147
:101A40000301B1DF80910201AEDF80E89EE30197E0
:101A5000F1F79298C150DF4F0FB6F894DEBF0FBE7A
:101A6000CDBFCF91DF911F910F91FF90EF9008951F
:101A7000198280E48A8384E096DF84E030DF198174
:101A8000812F91DF812F2BDF80E48DDF80E427DF42
:101A9000D2CF2F923F924F925F926F927F928F920E
:101AA0009F92BF92CF92DF92EF92FF920F931F937C
:101AB000DF93CF93CDB7DEB7C950D2400FB6F894BD
:101AC000DEBF0FBECDBF4DDFEE2400E010E0BB2433
:101AD000FF2499E0292E312C2C0E3D1E8DE4C82EBA
:101AE000D12CCC0EDD1EB4E08B2E912C8C0E9D1EC5
:101AF000A5E06A2E712C6C0E7D1E5CD19C0190FDC0
:101B0000FCCF8C3F9105D1F08D3F910509F445C084
:101B1000013009F11430B0F0143009F44BC0E3FE89
:101B200005C0812F90E009970CF454C01F3FA9F025
:101B3000B22E822FD4DE00E01FEFDFCF002359F456
:101B400001E0DBCFF301E10FF11D20831F5F822F46
:101B5000C6DE00E0D2CF2068DDCF8F2D90E0C85FD9
:101B6000DD4F99838883C850D240FC01E20DF31DFC
:101B70002083822FB4DE8B2D90E00197C85FDD4F6C
:101B800028813981C850D2402817390741F18FEF99
:101B9000F816D9F1F39400E0B0CF2FEF3FEF309378
:101BA0000301209302018DEF9ADE949A00E010E089
:101BB000FF24A3CFE22E822F92DEFE013896DE01B3
:101BC000119680818D933197E815F905D1F700E0E2
:101BD00015E093CF1F5F822F82DE00E08ECF80E082
:101BE0007EDE80E07CDE8091020190910301892BF2
:101BF00091F489858736C1F1803779F1873799F07B
:101C000010E0FF24F39400E078CF81E060E040E052
:101C100088DE00E072CF81E060E040E082DE00E03C
:101C200010E0FF246ACF5A844B84FE013D96DE010A
:101C3000A85FBE4F81918D93EC15FD05D9F7B201D8
:101C400080E090E0AE01485F5E4F09DE6E2D669544
:101C5000637081E090E0B3DED3CF6E2D6695637044
:101C600082E090E0ACDECCCFE69433E0E32282E089
:101C700090E06E2DA4DE83E790E01CD18CE990E02B
:101C800019D120E137E240E951E0CA010197F1F7AB
:101C900021503040D1F7F8948BB780930101982FF1
:101CA00091609BBF8D7F8BBFE0E0F0E0099580E005
:101CB00090E0C75FDD4F0FB6F894DEBF0FBECDBF1B
:101CC000CF91DF911F910F91FF90EF90DF90CF9018
:101CD000BF909F908F907F906F905F904F903F90BC
:101CE0002F9008951F920F920FB60F9211242F93E9
:101CF0008F939F93EF93FF939BB12CB1E091FE00E4
:101D0000EF5FEF718091FF00E817B1F09871E093F9
:101D1000FE00F0E0E452FF4F208380910001982BF9
:101D200090930001FF91EF919F918F912F910F90D0
:101D30000FBE0F901F90189592E0EFCF1F920F9259
:101D40000FB60F9211248F939F93EF93FF9390916F
:101D5000FC008091FD009817A1F0E091FD00EF5F7D
:101D6000EF71E093FD00F0E0E454FF4F80818CB907
:101D7000FF91EF919F918F910F900FBE0F901F9049
:101D800018955598F5CF9C011092FC001092FD001B
:101D90001092FE001092FF0097FF03C082E08BB903
:101DA0003F7730BD29B988E98AB986E880BD86EADF
:101DB00080BD08959091FE008091FF00981791F0EA
:101DC000E091FF00EF5FEF71E093FF00F0E0E4527D
:101DD000FF4F80819091000110920001282F30E088
:101DE000C901089520E031E0C9010895282F90919C
:101DF000FC009F5F9F718091FD009817E1F3E92F30
:101E0000F0E0E454FF4F20839093FC00559A08952E
:101E1000DC012C912223A1F011969091FC009F5F90
:101E20009F718091FD009817E1F3E92FF0E0E454F1
:101E3000FF4F20839093FC00559A2C91222361F749
:101E40000895FC0144914423B9F09C012F5F3F4F5A
:101E50009091FC009F5F9F718091FD009817E1F3C6
:101E6000E92FF0E0E454FF4F40839093FC00559A33
:101E7000F9014491442351F708958CB59DB501961D
:101E80009BBD8ABD80EC8FBD81E88EBD80E288BF9E
:101E900080E389BF10920501B99A0895982F809127
:101EA00005018823E1F79095909304018AE08093DF
:101EB00005010895FC019081992371F02AE0319683
:101EC000809105018823E1F7909590930401209378
:101ED00005019081992399F708951F920F920FB6EB
:101EE0000F9211248F939F938AB59BB58F5B9C4F64
:101EF0009BBD8ABD80910501882371F0815080933C
:101F00000501893091F08091040180FF0CC090E8B8
:101F10008695809304019FBD9F918F910F900FBE76
:101F20000F901F90189590ECF3CF90E89FBDF4CFE1
:041F3000F894FFCF53
:101F34000A0D426F6F746C6F61646572205365742F
:101F44007570000A0D203078363720656D70666133
:101F54006E67656E203D3D3E2050726F6772616D05
:101F64006D696E6720666572746967000A0D205397
:101F74007072696E6765207A757220416472657348
:0C1F8400736520307830303030210000D0
:0400000300001800E1
:00000001FF
