:1018000012C02CC02BC02AC029C028C085C326C046
:1018100025C024C023C09BC2C6C220C01FC01EC09A
:101820001DC01CC01BC011241FBECFE5D4E0DEBF0D
:10183000CDBF10E0A0E6B0E0E2E7FFE102C0059016
:101840000D92A438B107D9F710E0A4E8B0E001C0C8
:101850001D92AE3CB107E1F720D189C3D1CFEF9201
:10186000FF921F93CF93DF93DA011FB7F894E199AA
:10187000FECFEB0183E0FB0187BFE89507B600FCD4
:10188000FDCFFE01AE01405C5F4F61E08C9111968F
:101890003C91119720E07901E80EF11C12960701A6
:1018A00067BFE89511243296E417F50779F785E0CC
:1018B000FE0187BFE89507B600FCFDCF81E187BF39
:1018C000E8951FBFDF91CF911F91FF90EF90089592
:1018D0008FEF9FEF9093CB008093CA0008954091C3
:1018E000CA005091CB0090E062E070E107C057FD64
:1018F0000DC0A9019F5F983079F0880F9A01220FDF
:10190000331F87FFF4CF216057FFF3CFA90146278C
:1019100057279F5F983089F75093CB004093CA00B8
:101920000895813041F0C39A613041F0949841307C
:1019300041F096980895C3986130C1F7949A413068
:10194000C1F7969A0895DC01FB019B012C5F3F4F84
:1019500013968C91139781931197E217F307C1F7B0
:1019600008958A9ABB9A8C9A8E9A929893988FB778
:10197000F8949BB79093C900292F21602BBF9260E8
:101980009BBF8FBF83E390E033D296D2789480E6FA
:1019900090E0AFD280E060E041E0C3DF08955BD229
:1019A00008951F93182F8C5F833018F48CEF53D257
:1019B0001F77812F50D21F910895EF92FF921F93AE
:1019C000DF93CF93CDB7DEB7CF5FD0400FB6F8949B
:1019D000DEBF0FBECDBF7C01142FE0E0FDE73197E5
:1019E000F1F7929A442371F4862F90E083709070FF
:1019F000880F991F82959295907F9827807F9827CE
:101A0000182F11618FEF9FEF9093CB008093CA0046
:101A10008EEF21D28EEF63DF80E01DD280E05FDFAA
:101A2000812FBFDF812F5BDF82E0E816F10421F117
:101A300082E0B7DF82E053DF80E051DF80E04FDFFC
:101A40008091CB00AEDF80EA9FE00197F1F78091B3
:101A5000CA00A7DF80E89EE30197F1F79298C15092
:101A6000DF4F0FB6F894DEBF0FBECDBFCF91DF9131
:101A70001F91FF90EF900895198280E48A8384E09B
:101A800090DF84E02CDF1981812F8BDF812F27DF0E
:101A900080E487DF80E423DFCFCF3F924F925F92D5
:101AA0006F927F928F929F92AF92BF92CF92DF926E
:101AB000EF92FF920F931F93DF93CF93CDB7DEB7D3
:101AC000CD50D2400FB6F894DEBF0FBECDBFECEFC5
:101AD000FFE12591359145915491C85FDD4F2883F1
:101AE00039834A835B83C850D2403BDF3324BB2415
:101AF00000E010E0AA24CC24DD24AE01435B5F4F5C
:101B0000C45FDD4F59834883CC50D240A4E06A2E95
:101B1000712C6C0E7D1E44244A94542C80D19C015F
:101B200090FDFCCF8C3F9105F1F08D3F910511F1B7
:101B30008E3F9105E1F0DD2089F7013091F11430FD
:101B400020F1143009F449C0B3FE05C0812F90E0A4
:101B500009970CF463C01F3F31F1A22E822FBFDE24
:101B600000E01FEFDBCF002331F701E0D7CFDD240A
:101B7000D394D4CF5092CB004092CA008DEFAFDE09
:101B800000E010E0CC24DD24C9CFE5E0F0E0EC0F6C
:101B9000FD1FE10FF11D20831F5F822FA0DE00E0FB
:101BA000BDCF2068CCCF3320B1F0EC2CFF24E9E08E
:101BB000F0E0EC0FFD1FEE0DFF1D2083822F8FDE66
:101BC0008A2D90E00197E816F90669F15FEFC516D6
:101BD00009F446C0C39400E0A1CFB22E822F7FDE6D
:101BE000FE013896DE01119680818D933197E615BE
:101BF000F705D1F789819A81AB81BC81C85FDD4F40
:101C0000288139814A815B81C850D2402817390721
:101C10004A075B0701F100E015E080CF1F5F822FCC
:101C20005EDE00E07BCF80E05ADE80E058DE80910F
:101C3000CA009091CB00892BC9F489858736F1F0D1
:101C4000803709F478C0873709F454C010E0CC24F9
:101C5000C39400E063CF3324339400E015E05ECFFB
:101C600081E060E040E05DDE00E058CF81E060E0D0
:101C700040E057DE00E010E0CC2450CFB69433E0D3
:101C8000B32282E090E06B2D40E097DE84E790E0A5
:101C900030D120E137E240E951E0CA010197F1F784
:101CA00021503040D1F7F8948BB78093C900982F1A
:101CB00091609BBF8D7F8BBFE0E0F0E0099580E0F5
:101CC00090E0C35FDD4F0FB6F894DEBF0FBECDBF0F
:101CD000CF91DF911F910F91FF90EF90DF90CF9008
:101CE000BF90AF909F908F907F906F905F904F903C
:101CF0003F9008959A848B84FE013D96DE01A85F93
:101D0000BE4F81918D93C45FDD4F48815981CC5086
:101D1000D240E417F507A9F7B40180E090E0AE01E6
:101D2000485F5E4F9CDD6B2D6695637081E090E0AF
:101D300040E043DE8BCF6B2D6695637082E090E0D0
:101D400042E53BDE80E89EE30197F1F77FCF1F92EB
:101D50000F920FB60F9211242F938F939F93EF93AF
:101D6000FF939BB12CB1E091C600EF5FEF718091C2
:101D7000C700E817B1F09871E093C600F0E0EC55A9
:101D8000FF4F20838091C800982B9093C800FF914B
:101D9000EF919F918F912F910F900FBE0F901F90F9
:101DA000189592E0EFCF1F920F920FB60F92112469
:101DB0008F939F93EF93FF939091C4008091C50000
:101DC0009817A1F0E091C500EF5FEF71E093C500B7
:101DD000F0E0EC57FF4F80818CB9FF91EF919F911C
:101DE0008F910F900FBE0F901F9018955598F5CFBB
:101DF0009C011092C4001092C5001092C60010926F
:101E0000C70097FF03C082E08BB93F7730BD29B987
:101E100088E98AB986E880BD86EA80BD08959091F8
:101E2000C6008091C700981791F0E091C700EF5F5E
:101E3000EF71E093C700F0E0EC55FF4F8081909187
:101E4000C8001092C800282F30E0C901089520E092
:101E500031E0C9010895282F9091C4009F5F9F71C0
:101E60008091C5009817E1F3E92FF0E0EC57FF4FA0
:101E700020839093C400559A0895CF93DF93EC018B
:101E80008881882329F02196E6DF88818823D9F785
:101E9000DF91CF910895CF93DF93FC018491882344
:101EA00041F0EF012196D7DFFE012196849188232E
:101EB000D1F7DF91CF9108958CB59DB501969BBD6B
:101EC0008ABD80EC8FBD81E88EBD80E288BF80E353
:101ED00089BF1092CD00B99A0895982F8091CD00B6
:101EE0008823E1F790959093CC008AE08093CD0011
:101EF0000895FC019081992371F02AE03196809138
:101F0000CD008823E1F790959093CC002093CD00ED
:101F10009081992399F708951F920F920FB60F920F
:101F200011248F939F938AB59BB58F5B9C4F9BBD6C
:101F30008ABD8091CD00882371F081508093CD00BF
:101F4000893091F08091CC0080FF0CC090E886959C
:101F50008093CC009FBD9F918F910F900FBE0F90EB
:101F60001F90189590ECF3CF90E89FBDF4CFF894B4
:021F7000FFCFA1
:101F72000A0D426F6F746C6F6164657220536574F1
:101F820075700A004A756D7020746F203078303099
:041F920030300A00E1
:041FFC0001100000D0
:0400000300001800E1
:00000001FF
