:1000000012C02CC02BC02AC029C028C053C326C090
:1000100025C024C023C053C27EC220C01FC01EC042
:100020001DC01CC01BC011241FBECFE5D4E0DEBF25
:10003000CDBF10E0A0E6B0E0EEE0F7E002C0059032
:100040000D92A838B107D9F711E0A8E8B0E001C0D7
:100050001D92A23EB107E1F71ED157C3D1CF8FEF5A
:100060009FEF9093D9008093D80008954091D800D5
:100070005091D90090E062E070E107C057FD0DC0DB
:10008000A9019F5F983079F0880F9A01220F331FE2
:1000900087FFF4CF216057FFF3CFA90146275727E9
:1000A0009F5F983089F75093D9004093D800089506
:1000B000813041F0C09A613041F0C59A413041F041
:1000C000C29A0895C0986130C1F7C5984130C1F710
:1000D000C2980895882399F08130B1F08230F1F010
:1000E000833009F18430A9F0853061F1863079F1EF
:1000F000873091F18830E1F08930F9F00895A898BF
:10010000A998AA98AB980895A89AA998AA98AB9884
:100110000895A898A998AA9AAB980895A898A99A1A
:10012000AA98AB980895A89AA99AAA98AB98089506
:10013000A898A998AA98AB9A0895A89AA998AA9855
:10014000AB9A0895A89AA998AA9AAB980895A898E6
:10015000A99AAA9AAB980895A89AA99AAA9AAB982C
:100160000895DC01FB019B012C5F3F4F13968C919E
:10017000139781931197E217F307C1F7089523D2DC
:1001800008951F93182F8C5F833018F48CEF1BD2C7
:100190001F77812F18D21F9108950F931F93CF932C
:1001A000DF938C0180E09DE70197F1F7929A82E559
:1001B0008093DA011092DA008FEF9FEF9093D900CD
:1001C0008093D8008EEFFFD18EEF50DF80E0FBD11F
:1001D00080E04CDF8091DA01D4DF8091DA0146DFE4
:1001E00002301105B1F18091DA008E5FCADF809193
:1001F000DA008E5F3BDF8091DA00882391F00BED0F
:1002000010E0C0E0D0E0F8018081BBDFF80181910F
:100210008F012CDF21968091DA0090E0C817D90772
:1002200094F380E023DF80E021DF8091D900A9DF13
:1002300080EA9FE00197F1F78091D800A2DF80E883
:100240009EE30197F1F79298DF91CF911F910F9163
:10025000089582E08093DA001092DB0080E48093BE
:10026000DC00C1CF8C9A8D9A8A9AB89ABD9ABA9AB4
:10027000A09AA19AA29AA39A80E090E02BDF959A87
:10028000929881E061E041E013DF83E390E068D180
:10029000E1D178940895AF92BF92CF92DF92EF921E
:1002A000FF920F931F93DF93CF9300D000D0CDB771
:1002B000DEB7D8DF789480E690E0E9D180E061E0B5
:1002C00040E0F6DE7E010894E11CF11C10E8C12E2E
:1002D0001EE3D12EBB24BA94B4E0AB2E0FEF1FEF78
:1002E00056D19C0190FDFCCF8C3F910561F18D3F73
:1002F000910509F45DC0809188008130D1F1409171
:10030000CE009091D700491730F1491709F462C027
:100310008091DA0183FF0BC0692F70E0E42FF0E0D9
:10032000CB01880F991F8E179F070CF075C04F3FA8
:1003300021F1B092CE002093DA00822F97DE86E082
:1003400090E0C8DECDCF809188008823B1F681E0AF
:1003500080938800C5CFE42FF0E0E153FF4F208366
:100360004F5F4093CE00822F81DE82E090E0B2DECC
:10037000B7CF206810928800C2CFE091DB01F0E097
:10038000E552FF4F2083822F71DE4091DB01242F45
:1003900030E08091DA0090E001972817390709F4DE
:1003A0004FC04F3F09F447C04F5F4093DB0198CFE8
:1003B000109288001092CE00A092D7001092DB011C
:1003C0001093D9000093D8008DEF50DE81E090E0CB
:1003D00081DE86CF2093DA014F5F4093CE00822FDB
:1003E00045DEE2EDF0E0D70180818D93319720E08A
:1003F000EE3CF207C9F783E090E06CDE89819A81D8
:10040000AB81BC8188529041A040B04009F068CFD8
:1004100084E090E05FDE64CF3197E61BF70BE45297
:10042000FE4F20834F5F4093CE00822F1FDE85E07A
:1004300090E050DE55CF81E060E040E039DE50CF03
:1004400080E014DE80E012DE1092DB011092CE001C
:1004500087E090E03FDE8091D8009091D900892B11
:1004600051F788E090E036DE8091DB00803729F09C
:100470008736E9F04091DB0194CF6091DA0166950F
:10048000637082E090E089DE89E090E023DEC601BF
:100490000197F1F780E060E041E00ADEE09185003D
:1004A000F091860009958091DB00873619F76091FD
:1004B000DA016695637081E090E06FDEDBCF1F921A
:1004C0000F920FB60F9211242F938F939F93EF9358
:1004D000FF939BB12CB1E091CB00EF5FEF71809166
:1004E000CC00E817B1F09871E093CB00F0E0E7554D
:1004F000FF4F20838091CD00982B9093CD00FF91EA
:10050000EF919F918F912F910F900FBE0F901F90A1
:10051000189592E0EFCF1F920F920FB60F92112411
:100520008F939F93EF93FF939091C9008091CA009E
:100530009817A1F0E091CA00EF5FEF71E093CA0055
:10054000F0E0E757FF4F80818CB9FF91EF919F91C9
:100550008F910F900FBE0F901F9018955598F5CF63
:100560009C011092C9001092CA001092CB00109208
:10057000CC0097FF03C082E08BB93F7730BD29B92B
:1005800088E98AB986E880BD86EA80BD08959091A1
:10059000CB008091CC00981791F0E091CC00EF5FF8
:1005A000EF71E093CC00F0E0E755FF4F8081909130
:1005B000CD001092CD00282F30E0C901089520E031
:1005C00031E0C9010895282F9091C9009F5F9F7164
:1005D0008091CA009817E1F3E92FF0E0E757FF4F49
:1005E00020839093C900559A0895DC012C91222311
:1005F000A1F011969091C9009F5F9F718091CA00F0
:100600009817E1F3E92FF0E0E757FF4F208390932D
:10061000C900559A2C91222361F70895FC01449159
:100620004423B9F09C012F5F3F4F9091C9009F5F19
:100630009F718091CA009817E1F3E92FF0E0E75726
:10064000FF4F40839093C900559AF9014491442388
:1006500051F708958CB59DB501969BBD8ABD80EC80
:100660008FBD81E88EBD80E288BF80E389BF109294
:10067000E101B99A0895982F8091E1018823E1F76B
:1006800090959093E0018AE08093E1010895FC0148
:100690009081992371F02AE031968091E1018823BD
:1006A000E1F790959093E0012093E10190819923E7
:1006B00099F708951F920F920FB60F9211248F93FE
:1006C0009F938AB59BB58F5B9C4F9BBD8ABD8091E4
:1006D000E101882371F081508093E101893091F02C
:1006E0008091E00180FF0CC090E886958093E00146
:1006F0009FBD9F918F910F900FBE0F901F901895E7
:0E07000090ECF3CF90E89FBDF4CFF894FFCFBC
:10070E000A0D486965722069737420646173204113
:10071E006E77656E64756E677370726F6772616DFA
:08072E006D2E2E2E00000C00C0
:00000001FF
