:100000002DCA1895F9C984C0189518951895189592
:10001000189505CA18951895189518951895189556
:100020001895189518952101A6051106221F060896
:100030007E06072106015A06043706030E060978D4
:1000400006054806037E06067206025406020306EB
:10005000014C06040A06FB00AE0222010000520019
:10006000D000CE1518E0E2E2F1E0218127FF02C0C6
:1000700021E001C020E0322F40815181440F551F03
:100080004083518307FB1EF4242F21602083000F3F
:10009000332339F022E030E1408142275327408367
:1000A00051831A9501F708950FEFE2E2F1E0008322
:1000B00001830895402F3F3F19F0332309F0339512
:1000C000F894E0EDF0E050E0E00FF51F3287148780
:1000D0002687508B87D0009512B3102312BB7894DB
:1000E000089500E002BD02B500FDFDCF0BE005BDA7
:1000F00002B501FDFDCF0CE703BD09B7006809BFDC
:1001000009B70F7B09BF089501B3006301BBE9CFB5
:10011000BA93AA93FA93EA935A934A933A932A93F7
:100120001A930A933FB7E0EDF0E002890160028B79
:1001300004890395048B0A3029F400E0048B0289BA
:100140000260028B03890395038B043111F400E0F4
:10015000038B05890395058B043631F400E0058B8C
:1001600002890460028B02C00A3058F4058910E04D
:10017000DF01A00FB11F0C91002319F00C910A951B
:100180000C934389423010F550E0E40FF51F2285AF
:100190002223E1F00089002319F00A95008B16C094
:1001A00021D012B3102331F01685108B009512B3B5
:1001B00010230BC01485108B2F3F29F0122F1A9596
:1001C0001287112319F012B3102B12BB3FBF0991F4
:1001D00019912991399149915991E991F991A991EF
:1001E000B991189501E010E04C5F4DC9E199FECF3F
:1001F0001FBB0EBB01E00CBB0DB30895A4D9C80111
:10020000A22FF4DF0A1751F0E199FECF9FBB8EBBFE
:10021000ADBBF89404E00CBBE19A7894E3E0A3C989
:10022000F80100E004830383028345832083318344
:10023000089588D9F80144815581451710F000E0F0
:1002400015C0A081B181438152E0459FA00DB11D31
:100250002D933C932381239523833581231710F01D
:1002600020E0238304810395048301E0E4E07AC95C
:1002700069D9F8010481002311F400E0F7CFA081CF
:10028000B181028112E0019FA00DB11D0D911C9161
:10029000D9010D931C93442311F401E0EFCF0281A7
:1002A000039502831581011710F000E00283048199
:1002B0000A950483F2CF01B30F7301BB02B3006C44
:1002C00002BBE1E0F1E0008100FD05C004B308617C
:1002D00004BBAC9803C004B3077E04BBAB9A018196
:1002E00000FD05C004B3036004BBA99803C004B3B8
:1002F0000C7F04BBA89A03E806B90895DCCF22D985
:10030000F8942091E20000E00093E2007894022F3C
:10031000057011F400E095C0A6EEB0E000E0FD012C
:100320000283018330B330953595359535953595F4
:100330003C700084002D0370302B15B2369967C0D5
:1003400065B15285552311F406E201C007E207B9F1
:10035000369A10E0E50FF11F01E0452F94D8653281
:1003600018F51785112321F410E01587438703C082
:100370001385611708F463871585611708F0658791
:10038000178513951787143158F0858590E063859C
:10039000861B9040833090400CF4302B00E00787A0
:1003A000552329F000E004C000953023F7CF01E089
:1003B000FD01028715BA301561F50185002311F0A2
:1003C0000A95018701850023C9F560E0FD01578189
:1003D00070E0E60FF71F0381033028F434D0102FAC
:1003E000152309F0302B6395643080F33C93352757
:1003F000FD01318360E027D01C911023C9F0FD017D
:10040000E60FF71F102F132341F073830DC015BAA9
:1004100081CF30870AE0018711C022FB4EF413819F
:100420001F3F31F013951383FD011281102B1283AE
:100430006395643000F30C91FD0107831281018103
:10044000012BE4E08FC801E010E0462F1CC878D8EB
:10045000023038F5402E5524D201AA0FBB1FCD0122
:1004600003968C01C3DE902F8D010C5F21D1802F6C
:100470000F3F0FEF900711F480E090E08201095FD9
:1004800017D10F3F11F0002369F480E090E000E005
:10049000F201EF5FFE4F028BFD01EF5FFE4F86839F
:1004A0009783C1C0013099F701E0F2CF402F212F8F
:1004B000023080F41BD02F3F19F418B3102704C06A
:1004C000222321F018B3102B18BB0895009518B300
:1004D000102318BB0895402F023030F428B306D003
:1004E000022311F001E0089500E0089565D1CBC723
:1004F00025D8802F412EA0E8B0E090E001E0602EEA
:1005000001E0702ED3D0081719F4242D392F1AD0FA
:1005100016969395903490F3382F242D306F12D087
:10052000F301208946D1022359F02FE02823322FEE
:10053000242D306E06E1600E00E0701E830179DE2E
:10054000E8E00CC883010DC4FBD726970091B302E5
:10055000002309F067C041E09E0107E111E088DE59
:10056000002309F45FC08881098110E008831983A2
:100570008FD20091B302E00FF11F0881007F10912C
:10058000B3021395003D28F11093B30211F413E761
:1005900001C01BE4108328812F704091B30250E00A
:1005A000FA0153D02083E3EBF2E01081139510831E
:1005B000003F19F407EF10E002C00CEF10E03AD64C
:1005C00000E02091B30230E0F9013FD000832DD04C
:1005D00024C00BE40083412E012FBDD348815981F3
:1005E00006E010E048D700581F4F27D055242AD0E6
:1005F00090E021D0FE01E90FF51D02838E010E5F10
:100600001F4F18D693959430A0F34090B302042D59
:10061000A2D311D017D00091B30210E0F80115D089
:10062000808303D02696E6E09BC7E3EBF2E00081EF
:1006300003950083089508811981D8011196A88334
:10064000B983D4CDF20101D0F4CFE153FD4F089529
:1006500075D728013901A0E8B0E090E427D006154D
:10066000E1F48D010B5F24D00715B9F480E019D0B7
:100670000F5F1ED030E0F201E80FF31F1081011769
:1006800019F48395843098F3843039F480E02FEFA7
:1006900008D0B4DD83958630D0F316969A95F1F69E
:1006A0004FCF082F10E00A0F1B1F08958D019ECD1C
:1006B0001F4F9CCD44D72801C901A0E8B0E0C8DF96
:1006C0006624F4DF0F3F89F4282F16D0119680E0BE
:1006D00010E0F201E80FF11F20810ED011968395F2
:1006E0008430B0F3292F08D005C01696639400E437
:1006F000601638F3E7E033C78D0180CD23D7A1E042
:10070000B1E01C960C9118961C9154971A9539F0EB
:100710001A9549F01A95B9F01A95A9F008C03FEF5B
:1007200025E015E007C03FEF2FE01FE003C030E0F9
:1007300020E010E0BFDC30E020E010E001E01C969B
:100740004C91041BB7DCE4E00DC7FBD6C801412E79
:100750000CE0402245944594082F79DE01E011E039
:1007600030E0D801A80FB31F937F29F0905161F0BA
:100770009051C9F016C0FD012289F801318919D0C4
:10078000032339F0222311F011E006C0142D11705B
:1007900003C02223C9F71FEF082F88DE03E0FD0105
:1007A0000587E5E0DEC6FD0102890023B9F710E008
:1007B000F3CF02D0482F67C601E010E008958A9376
:1007C000802FE02FF0E070968F0110DD0F3F09F4CD
:1007D000082F89910895B8D6902F812F009110018C
:1007E000002349F4092F84DE092FE9DF102F107F41
:1007F00091F4182F0FC0013071F493959295907F6A
:10080000912B192F00E074DE00E0D9DF102F107F4C
:1008100011F4192F9ADFE2E0A7C689D608D1009516
:10082000C090E700C02203D1D090E700D022A1E021
:10083000B1E0FD011489E12E09EE402E00E0502EBA
:10084000112369F01A9509F46AC01A9509F487C052
:10085000125009F49AC0125009F4ACC0C0C08824E8
:10086000FD010785013029F4E2D00370033009F45B
:1008700041C0BB24CD01880D9B1D3D01680C7B1C34
:10088000EDD0902E0D2149F0DAD001FD02C0128585
:100890001BC004E0028714E013C0092D0C21A9F04D
:1008A000CED001FD09C012851260C7D0FC010285BF
:1008B0000C5F0C70028709C00285037F0287102F2E
:1008C000BCD0FC0112851260B8D00091E80009216B
:1008D00089F0B5D001FD0EC03201680C7B1CAFD091
:1008E0000A3009F4A7D0ABD00D3021F4A3D00AE030
:1008F000F301008399D008F4B3CF802E2091E80053
:10090000ADD0022341F0A5D00E3129F401E0B1D0E1
:10091000082D0250048784D008F061C0EFCF8824EE
:10092000A1D031F08FD021FD03C0FD0124859DD0E1
:100930007BD0B0F3802E03C073D008F050C08ED0AF
:10094000102F1D2119F000E094D049C01091E8004B
:10095000102391F37ED00C3379F702E0F5CF882491
:1009600081D029F06FD021FD02C02EEF7ED05CD067
:10097000B8F3802E02C054D090F570D00D21D9F379
:1009800004E077D006E0058B2AC0C2FA16F400E036
:10099000048B0091E80002FF22C0E9EEF0E0028142
:1009A0000E31E9F4FD010589048B00E0E9EEF0E089
:1009B000028315C03CD002FFC6CF3FEF20E01EEF00
:1009C00000E078DB80E090E02FEF8C0117DC0196EF
:1009D0009230D0F3FD0104811581F8010995FD01E4
:1009E00004890E1509F08ADE0C9100FD0AC0FD0194
:1009F000038502FD04C005B3036005BB02C0A998CE
:100A0000A89AFD01018100FD09C0028502FD04C014
:100A100005B3086105BB02C0AC98AB9AEFE097C57F
:100A2000839404E080160895839402E0FBCF009144
:100A3000E6000895FC0112851160082DCCCEF3016B
:100A400000810895082D10E0FD01E80DF11F2081BF
:100A500008959924F201E80DF91DF2CF01E010E0AC
:100A6000482D11C5FBDF0C210895005F1F4FC6DB29
:100A700000E0FD01048B08950BD0442311F041E701
:100A800001C043E6408321833283D4D303E064C1B1
:100A9000EFECF2E0089556D5A1E0B1E000E025D0FA
:100AA0001F960C931F97023020F000E01F960C93C6
:100AB0001F9709E01AD0009550960D930AE015D0C3
:100AC0000C93519702E111D00C93043010F000E028
:100AD0000C9303E10AD011960C931197043018F08F
:100AE00000E011960C930ADC2ECE10E07FCB21D5CE
:100AF000CC24A1E0B1E0FD01C48ACDDF07B30360DF
:100B000007BB08B30C7F08BBFFDA2ED140E424E218
:100B100031E08D010A5E1F4F83DB7894FD0137853C
:100B200033952FE01FE000E0C5DA54C0123071F4B5
:100B30001091B202112351F4031741F440E0302F19
:100B400003EA12E099DF00E094DFD8DD00E00093D3
:100B5000AD02CC20F9F5E0EDF0E001810023D1F504
:100B6000F8940AE001837894AA248A2D90E024DE88
:100B70004A2D4C5F88D4602E8C01000F111FFD019F
:100B8000E00FF11F06811781012B89F006810150CA
:100B9000104006831783012B51F410E00A2D86DCE8
:100BA000FD010089062119F0CDD02068D8D0FD01C3
:100BB000EA0DF91F0585002349F00A95058731F4F0
:100BC000FD010089062111F0BDD0C9D0A39402E037
:100BD000A01658F294DB002309F01FDEB5DC6ED3BB
:100BE0000091AD02002309F4B4CF84EA91E0FC0146
:100BF00062807180B3800FEC402E02E0502E0081A5
:100C0000E6E2F0E04FC4F894FD0102811381F8019F
:100C100009959CCFCC24C394F89498CFCC24789495
:100C200095CF0091AD02023008F490CFFC01008115
:100C3000701609F08BCFFD0104811581E8CF2BDF01
:100C400085CFAA240BC08301D1DA11E0610E10E038
:100C5000711EF201EA0DF11F0083A394FC010381D0
:100C6000A01688F379D007EC12E0E4D26FCFAA2463
:100C7000FC010381A01608F069CFBB24EA0DFB1D1F
:100C800024818301BBDA01E0600E7B1CA394F0CFCA
:100C900001E0FEDE008324C002E0FADE008300E013
:100CA000F7DE018302E0DECF1B2D062DFFDB062DD4
:100CB000CEDB4CCFEDDE708202E0701618F4072D0B
:100CC0000ADCEECF04E0701668F72091E60074DDD0
:100CD0008A0D911FFC0140814250D5D30223F9F2C5
:100CE00001E0DECF34D009F031CF27D0E3DC2ECFC6
:100CF0002ED009F02BCF21D0ABDC28CFFC01008116
:100D00000B3619F493010B2D03C03B2D272D062D17
:100D1000FD011489112341F41091B202112309F04D
:100D200015CF132F12DD12CF3485113009F0FECE0E
:100D30000ED009F40BCF41E003CF362D272D03EA67
:100D400012E008950A2DC7DB202F3A2D0895009157
:100D5000B2020023089503950093B3020895306D05
:100D60008D010A5E1F4F65CA00E000BD0CE009B9A5
:100D700000E10AB906EA00BDE3EAF2E000E0028F12
:100D8000008B0287028B0FEF038B00911D010783FD
:100D900006830583048301B3066001BB929805B7FF
:100DA000037F046005BF0BB700680BBF01E0078B32
:100DB00002E003BF09B7016009BF0895C3D3A3EAE6
:100DC000B2E051D15F9902C000E06BC21BB10CB11F
:100DD0001471D1F7178D0C3F29F4112319F401E098
:100DE000078FF2CF21A1239521A30D3F89F400E0C5
:100DF00001A3038F048F03E0058F01E000A300E04F
:100E00000383028301830C934FD90DEF2BD9DCCFE1
:100E10000E3F19F400E000A3D7CF112319F00068AA
:100E200010E0178F10A1112379F2248D50E02430A7
:100E3000D8F410911D01011719F0158D1D7F158F24
:100E4000ECEFFFE1E20FF51F1491011721F0FD0116
:100E5000158D1E7F158FFD01E20FF51F0387FD0124
:100E6000148D1395148FD2CFC9F4158D11FF02C0C4
:100E700011E001C010E01787018B158D112311F0CF
:100E800021E001C020E011891770133011F411E046
:100E900001C010E0122B10A315E0E4CF118913FF5D
:100EA0000AC01770133039F0293028F4E20FF51F0B
:100EB00035970083D4CF2F3F21F01FEF148F068F7B
:100EC000A5CF238D30E0F901EC55FE4F0083CAD841
:100ED000FD01038D10E0868D90E00197081719073A
:100EE00089F400E0058FBED8A3D1E2E2F1E00081F1
:100EF0001181012B11F0B7D067CFFD01068D02875C
:100F000001E063CF0F3FB9F30395038F5DCF08E096
:100F10000AB9929A5E9A08EF0CB95E9BFECF00E187
:100F20000AB992980895542F4A95552381F0F801F3
:100F30005081F9016081561710F40FEF0895519117
:100F40009F01F80161918F01561768F793C000E087
:100F5000089506C0F90151919F01F80151938F0145
:100F6000542F4A955523B1F70895ECD2A3EAB2E085
:100F7000FD010285002311F000E074C01FDF002393
:100F8000D9F3FD012189022F0770033029F500E014
:100F90000287269526952695239505C0149113174B
:100FA00059F7285003952223A9F050E0FD01E00FE6
:100FB000F51F3385ECEFFFE1E00FF51F283070F7E8
:100FC0000FEF10E048E0421B5ED214911023032380
:100FD000101791F603E046C0022F01711785112307
:100FE00021F0003149F23FD0C7CF003189F5269575
:100FF0002370822F018907FF02C00FEF038B038943
:101000000217F1F4EBD18D018EDF0023C9F42BD050
:10101000FD01028D063011F5818982958F708695CC
:10102000837041D146D1F9F6FD010689069503701A
:101030008017C9F601890779013171F402E012C005
:10104000FD01838B30D18D010C5D1F4F82DFE0CF1E
:101050002779213141F6DBCF01E004C011891170FD
:1010600001E001271EC100E0FD01028708955D9B9C
:101070006ECF0CB901E008958A93802F0D3F21F0C7
:101080000E3F11F00C3F71F40091CF03002349F49F
:101090000CEFEDDF002311F400E00DC001E0009340
:1010A000CF038F77082FE3DF0023B1F35E9A00E0D0
:1010B0000093CF0301E08991089544D2A3EAB2E0FE
:1010C000A4D0002391F408E00AB9929AEDD7A0D0F9
:1010D00000E002A30689077901318D0111F40C5D4E
:1010E00001C0085D1F4F008711870589013051F449
:1010F0000DEFBDDF002311F400E079C002E096D0CF
:101100000DEFB0D782D0023071F409C0808591858F
:1011100077D0008173D081F3FC0100817ED002A1E1
:101120000430A0F376D00589033029F4868965D090
:1011300019F304E078D069D0043099F4068903FDEE
:101140000CC005E0058B10C088EF9FE159D00491D9
:1011500055D091F2FC01049160D002A10830A0F3B7
:1011600058D00589053041F443D009F480E08E5F02
:1011700044D011F206E057D048D00630C9F438D038
:1011800089F480E00FC010E0F801E153FD4F908139
:10119000092F34D009F4B0CF092F64D7FD01048999
:1011A0000395048B0489081770F342D041D030D0E6
:1011B0000589073041F40091230120D009F49CCF28
:1011C00008E034D002C0083041F40091220116D06A
:1011D00009F492CF09E02AD002C0093039F45E9BAD
:1011E0008BCF00E10AB992980AE0058B01E059C063
:1011F00080890689017101310895082F3DDFE5C01E
:1012000010E0800F911FFC010895FD0105890895EC
:10121000FD0105890395058B089524D7FD0102A1E1
:10122000039502A3089502D0082F1CC7FD01F3CF38
:1012300000E018C744E098010BEC12E08ACE82D19E
:10124000A3EAB2E0D5D014960C9159970330B9F4C3
:1012500052962D911C9113961295107F110F022F0B
:10126000000F012B08610C935697233018F000E013
:10127000529603C05296022F03950C93529713D0A7
:101280002C5F3F4F16D029F056960C9100680C93B6
:1012900056970CD031F007D0285D3F4F14968D0142
:1012A00058DEE4E05FC144E09D01089544E02DE193
:1012B00031E08D01085D1F4F36DE87C043D155DE1A
:1012C000033011F424DE7FC0A3EAB2E050961C91F3
:1012D0001A962C915A97222381F02A95D1F02A95BB
:1012E000F9F12A9509F449C02A9509F44FC02A95C5
:1012F000A1F12A9509F450C066C0013011F401E053
:1013000060C0112309F45FC002E065D003E00E93D2
:101310005AC05DD009F057C0112371F05FD0C9DF0A
:1013200059F403E059960C938ADF02B70F700C59F9
:101330000E93129603E00BC05BD012970C9113969C
:101340000295007F000F09610C93149605E00C9341
:101350005A973AD0C1F100E034C036D0E1F733C03B
:10136000013069F234D079F56ADFA0DF11F404E0CE
:1013700001C003E030D0A1DE26C026D021F106E076
:101380002AD0129702B70F700C591CC01DD0D9F08B
:1013900000E021D01A9716C0023011F424D0DBCF20
:1013A000013011F420D0ABCF58960C915897002300
:1013B00051F459960C910A950C935997002371F3A7
:1013C00002E05A960C936DCF78DE0023089557966D
:1013D0000C915797FACF5A960C93089544E09D01CB
:1013E0002C5D3F4F089500E050960C935097089560
:1013F00000E054960D93F0CF28D00AB700680ABFDA
:10140000E3EAF2E001E0078B02B70770065F03A38F
:1014100000E002BF08B7016008BF11D0189515D0D1
:10142000E3EAF2E003A10A9503A311F400E0078BBD
:10143000008D002319F0008D0A95008FEECF1FBF9D
:1014400009911991E991F9910895FA93EA931A9300
:101450000A931FB7089500008895FECF0FEC0DBFCB
:1014600000E00EBFC0EBD0E088D0002309F095D09B
:101470003EDBF1DFF0CF149F102D059F100D049F70
:10148000002D110D08954A951AF0000F111FFBCF82
:1014900008957591659155914591159011FA259092
:1014A00035900895F9DF041B10E003C0F4DF041B3E
:1014B000150B20E030E005C0ECDF041B150B260BFC
:1014C000370BB8F010FC17C045910590E00FF11FE5
:1014D0000417100540E02407340758F436F404914B
:1014E0000024F101E01BF0090994E00FF11F2590A1
:1014F0003590F101099411F4D6F7F1CF31960EF041
:10150000319650E060E070E045914B3F48F089F340
:101510004F3F29F04E3F11F07591659155914591DE
:10152000041B150B260B370B39F318F3E7CFEA92A0
:10153000DA92CA92BA92AA929A928A927A926A920B
:101540005A924A92BA93AA939A938A930895EE84F0
:10155000DD84CC84BB84AA84998488847F806E8057
:101560005D804C80BB81AA8199818881F0E00FB6B3
:10157000F894CE0FDF1F0FBE089501E0089520E01C
:1015800006D0E9F70895259102D0E9F708952D9343
:1015900001501040202F212B089588E590E0FC0198
:1015A00005911491FC013296A591B491FC013496F9
:1015B00025913491422F432B19F0F901E4DF01C04A
:1015C000DEDF069610E08436910748F308950000A8
:1015D000000000000000000000000000000000000B
:1015E00000FF01020000000000000000000000FFFA
:1015F000FF00000000FFFFFFFF00000000010000EF
:1016000000000C00000000000004040000000000C6
:101610000000000000000000000000FFFFFFFF00CE
:041FFC0000000000E1
:00000001FF
:00000001FF
