:1000000012C02CC02BC02AC029C028C0D6C226C00E
:1000100025C024C023C0D6C101C220C01FC01EC03D
:100020001DC01CC01BC011241FBECFE5D4E0DEBF25
:10003000CDBF10E0A0E6B0E0E4E1F6E002C005903C
:100040000D92A838B107D9F711E0A8E8B0E001C0D7
:100050001D92A23EB107E1F7D7D0DAC2D1CF8FEF20
:100060009FEF9093D9008093D80008954091D800D5
:1005F00086958093E0019FBD9F918F910F900FBED4
:100600000F901F90189590ECF3CF90E89FBDF4CF1A
:04061000F894FFCF8C
:100614000A0D48696572206973742064617320410E
:100624006E77656E64756E677370726F6772616DF5
:080634006D2E2E2E00000C00BB
:00000001FF
