:1000000012C02CC02BC02AC029C028C053C326C090
:1000100025C024C023C043C26CC220C01FC01EC064
:100020001DC01CC01BC011241FBECFE5D4E0DEBF25
:10003000CDBF10E0A0E6B0E0ECE5F7E002C005902F
:100040000D92AA39B107D9F712E0AAE9B0E001C0D0
:100050001D92A43BB107E1F7D8D07EC3D1CF8FEF7B
:100060009FEF9093AB018093AA0108954091AA015C
:100070005091AB0190E062E070E107C057FD0DC008
:10008000A9019F5F983079F0880F9A01220F331FE2
:1000900087FFF4CF216057FFF3CFA90146275727E9
:1000A0009F5F983089F75093AB014093AA01089560
:1000B000813041F0C39A613041F09498413041F071
:1000C00096980895C3986130C1F7949A4130C1F76A
:1000D000969A0895DC01FB019B012C5F3F4F13961C
:1000E0008C91139781931197E217F307C1F7089545
:1000F00058D208951F93182F8C5F833018F48CEF1B
:1001000050D21F77812F4DD21F9108950F931F93C7
:10011000CF93DF938C0180E09DE70197F1F7929AEE
:1001200070E063707070660F771F62957295707FD4
:100130007627607F762761616093AC021092AC01F4
:100140008FEF9FEF9093AB018093AA018EEF29D29E
:100150008EEF8CDF80E025D280E088DF8091AC02DA
:10016000C9DF8091AC0282DF02301105B1F18091CC
:10017000AC018E5FBFDF8091AC018E5F77DF809135
:10018000AC01882391F00DEA11E0C0E0D0E0F80165
:100190008081B0DFF80181918F0168DF2196809125
:1001A000AC0190E0C817D90794F380E05FDF80E0EE
:1001B0005DDF8091AB019EDF80EA9FE00197F1F760
:1001C0008091AA0197DF80E89EE30197F1F792986A
:1001D000DF91CF911F910F91089582E08093AC0140
:1001E0001092AD0180E48093AE01C1CF8A9ABB9A90
:1001F0008C9A8E9A929881E061E041E059DF83E326
:1002000090E09CD127D2789408958F929F92BF92CC
:10021000CF92DF92EF92FF920F931F93DF93CF93D2
:1002200000D000D0CDB7DEB7E1DF80E690E02FD27E
:1002300080E061E040E03CDF10E07E010894E11CDA
:10024000F11C00E8C02E0EE3D02E0FEFB4E0BB2E61
:1002500088248A94982C87D19C0190FDFCCF8C3FF8
:10026000910549F18D3F910509F45AC080919A009A
:100270008130A1F14091A0019091A901491718F195
:10028000491709F45CC08091AC0283FF0BC0692F51
:1002900070E0E42FF0E0CB01880F991F8E179F07C5
:1002A0000CF06CC04F3FF1F00093A0012093AC0123
:1002B000822FDCDED0CF80919A008823C9F681E0BE
:1002C00080939A00C8CFE42FF0E0EF55FE4F2083D3
:1002D0004F5F4093A001822FC9DEBDCF20681092EE
:1002E0009A00C8CF112309F4B6CFE091AD02F0E037
:1002F000E355FE4F2083822FB9DE4091AD02242FBB
:1003000030E08091AC0190E001972817390709F49B
:1003100045C04F3F09F43DC04F5F4093AD029BCFB6
:1003200010929A001092A001B092A9011092AD0211
:100330009092AB018092AA018DEF98DE8CCF209332
:10034000AC024F5F4093A001822F90DEE4EAF1E01F
:10035000D70180818D93319721E0E03AF207C9F708
:1003600089819A81AB81BC8189529041A040B04083
:1003700059F087E890E08BD110E06DCF3197E61B04
:10038000F70BE255FD4FA3CF8BE790E080D111E052
:1003900062CF81E060E040E08BDE5DCF80E066DE32
:1003A00080E064DE1092AD021092A0018091AA015B
:1003B0009091AB01892B69F78091AD01873639F0B7
:1003C000803781F0833709F14091AD02A2CF60916F
:1003D000AC026695637081E090E098DE8091AD019B
:1003E000803781F76091AC026695637082E090E09F
:1003F0008DDEC6010197F1F7E0919700F09198002A
:1004000009958091AD018337F9F66091AC0266954C
:10041000637082E090E07ADE8091AF018130C1F0BC
:10042000823069F0833081F68091B001882329F110
:10043000813051F682E062E041E03ADEC5CF809142
:10044000B001882399F0813061F08091AF01EACF4B
:100450008091B0018823E9F08130B1F08091AF0143
:10046000DFCF82E061E042E023DEEFCF82E060E0B8
:1004700042E01EDE8091B001E6CF82E062E040E023
:1004800017DE8091B001D4CF81E062E042E010DE5F
:10049000E5CF62E042E00CDE8091B001DDCF1F923B
:1004A0000F920FB60F9211242F938F939F93EF9378
:1004B000FF939BB12CB1E0919D01EF5FEF778091AD
:1004C0009E01E817A1F0892F8871E0939D01F0E06B
:1004D000E55EFE4F208380939F01FF91EF919F91F6
:1004E0008F912F910F900FBE0F901F90189582E063
:1004F000F2CF1F920F920FB60F9211248F939F93FA
:10050000EF93FF9390919B0180919C019817A1F02C
:10051000E0919C01EF5FEF77E0939C01F0E0E556FE
:10052000FF4F80818CB9FF91EF919F918F910F9038
:100530000FBE0F901F9018955598F5CF9C01109203
:100540009B0110929C0110929D0110929E0197FFB9
:1005500003C082E08BB93F7730BD29B988E98AB9F9
:1005600086E880BD089590919D0180919E01981725
:10057000A1F0E0919E01EF5FEF77E0939E01F0E044
:10058000E55EFE4F308120919F01922F80E0AC010B
:10059000430F511D9A01C901089520E031E0C901BE
:1005A0000895282F90919B019F5F9F7780919C01D8
:1005B0009817E1F3E92FF0E0E556FF4F2083909381
:1005C0009B01559A0895DC012C912223A1F01196EC
:1005D00090919B019F5F9F7780919C019817E1F319
:1005E000E92FF0E0E556FF4F208390939B01559A49
:1005F0002C91222361F70895FC0144914423B9F022
:100600009C012F5F3F4F90919B019F5F9F7780914F
:100610009C019817E1F3E92FF0E0E556FF4F408386
:1006200090939B01559AF9014491442351F7089501
:1006300080919D0120919E0190E081589F4F821BE7
:1006400091096FE770E061D0089580919E018093D9
:100650009D0108958CB59DB501969BBD8ABD80EC2A
:100660008FBD81E88EBD80E288BF80E389BF109294
:10067000B302B99A0895982F8091B3028823E1F7C5
:1006800090959093B2028AE08093B3020895FC01A2
:100690009081992371F02AE031968091B3028823EA
:1006A000E1F790959093B2022093B3029081992341
:1006B00099F708951F920F920FB60F9211248F93FE
:1006C0009F938AB59BB58F5B9C4F9BBD8ABD8091E4
:1006D000B302882371F081508093B302893091F086
:1006E0008091B20280FF0CC090E886958093B202A0
:1006F0009FBD9F918F910F900FBE0F901F901895E7
:1007000090ECF3CF90E89FBDF4CF97FB092E07261E
:100710000AD077FD04D00CD006D000201AF47095D2
:1007200061957F4F0895F6F7909581959F4F0895B5
:10073000AA1BBB1B51E107C0AA1FBB1FA617B70707
:1007400010F0A61BB70B881F991F5A95A9F7809523
:0C0750009095BC01CD010895F894FFCFF6
:10075C000A0D4869657220697374206469652054B8
:10076C006573742D4170702E2E2E000A41647265D3
:10077C00737365204F4B000A416472657373652077
:0A078C0046616C73636800000C0006
:00000001FF
