:1000000012C02CC02BC02AC029C028C032C326C0B1
:1000100025C024C023C02AC253C220C01FC01EC096
:100020001DC01CC01BC011241FBECFE5D4E0DEBF25
:10003000CDBF10E0A0E6B0E0E8E1F7E002C0059037
:100040000D92AA39B107D9F712E0AAE9B0E001C0D0
:100050001D92A43BB107E1F7CAD05CC3D1CF8FEFAB
:100060009FEF9093AB018093AA0108954091AA015C
:100070005091AB0190E062E070E19A01220F331FD2
:1000800087FD216057FD02C0A90103C0A9014627D1
:1000900057279F5F983011F0880FEFCF5093AB0137
:1000A0004093AA010895813011F4C39801C0C39A06
:1000B000613011F4949A01C09498413011F4969AE9
:1000C000089596980895DC01FB019B012C5F3F4F3A
:1000D00013968C91139781931197E217F307C1F749
:1000E000089545D208951F93182F8C5F833018F41C
:1000F0008CEF3DD21F77812F3AD21F9108950F9335
:100100001F93CF93DF938C0180E09DE70197F1F778
:10011000929A70E063707070F5E0660F771FFA9541
:10012000E1F761616093AC021092AC018FEF9FEF39
:100130009093AB018093AA018EEF19D28EEF96DFD8
:1001400080E015D280E092DF8091AC02CCDF80911C
:10015000AC028CDF0230110541F482E08093AC01E7
:100160001092AD0180E48093AE018091AC018E5F6E
:10017000BADF8091AC018E5F79DF0DEA11E0C0E05B
:10018000D0E008C0F8018081AEDFF80181918F01D5
:100190006DDF21968091AC0190E0C817D90794F3E8
:1001A00080E064DF80E062DF8091AB019CDF80EA69
:1001B0009FE00197F1F78091AA0195DF80E89EE327
:1001C0000197F1F79298DF91CF911F910F910895C8
:1001D0008A9ABB9A8C9A8E9A929881E061E041E06B
:1001E00062DF83E390E091D116D2789408955F9214
:1001F0006F927F928F929F92AF92BF92CF92DF9237
:10020000EF92FF920F931F93DF93CF9300D000D014
:10021000CDB7DEB7DDDF80E690E01AD280E061E0A6
:1002200040E041DFECEFFFE1C590D590E590F49020
:1002300010E0B0E86B2EBEE37B2E55245A944E019D
:100240000894811C911C04E0AA24AA94BA2C72D1AF
:100250009C0190FDFCCF8C3F910541F480919A0068
:100260008823A9F481E080939A00F1CF8D3F910516
:1002700071F410929A001092A0010093A9011092BB
:10028000AD02B092AB01A092AA018DEF16C0809191
:100290009A00813019F4206810929A004091A001D0
:1002A0009091A901491758F4E42FF0E0EF55FE4F63
:1002B00020834F5F4093A001822FD8DEC8CF49171B
:1002C00021F52093AC024F5F4093A001822FCEDE38
:1002D000E4EAF1E0D40180818D93319781E0E03A46
:1002E000F807C9F789819A81AB81BC818C159D057E
:1002F000AE05BF0529F48BE790E0AAD111E0A7CFA6
:1003000087E890E0A5D110E0A2CF8091AC0283FFF6
:1003100010C0692F70E0E42FF0E0CB01880F991F27
:100320008E179F0734F03197E61BF70BE255FD4F10
:10033000BFCF4F3F29F05092A0012093AC01BCCF1A
:10034000112309F484CFE091AD02F0E0E355FE4FB4
:100350002083822F8BDE2091AD0230E08091AC01B2
:1003600090E001972817390709F073C080E07EDE1E
:1003700080E07CDE1092AD021092A0018091AA0173
:100380009091AB01892B09F068C08091AD0187364F
:1003900039F46091AC026695637081E090E0AFDE65
:1003A0008091AD01803779F46091AC0266956370FD
:1003B00082E090E0A4DEC3010197F1F7E09197009D
:1003C000F091980009958091AD01833709F041C003
:1003D0006091AC026695637082E090E090DE80915F
:1003E000AF01813071F48091B001882319F462E08B
:1003F00042E059DE8091B001813019F462E042E0C0
:1004000052DE8091AF01823081F48091B001882367
:1004100021F482E060E042E046DE8091B00181306C
:1004200021F482E061E042E03EDE8091AF01833062
:1004300081F48091B001882321F482E062E040E001
:1004400032DE8091B001813021F482E062E041E04F
:100450002ADE8091AD028F3F29F481E060E040E028
:1004600022DEF5CE8F5F8093AD02F1CE1F920F9208
:100470000FB60F9211242F938F939F93EF93FF93B7
:100480009BB12CB1E0919D01EF5FEF7780919E01D0
:10049000E81711F482E008C0892F8871E0939D016C
:1004A000F0E0E55EFE4F208380939F01FF91EF9186
:1004B0009F918F912F910F900FBE0F901F901895C5
:1004C0001F920F920FB60F9211248F939F93EF9369
:1004D000FF9390919B0180919C01981761F0E091AE
:1004E0009C01EF5FEF77E0939C01F0E0E556FF4F52
:1004F00080818CB901C05598FF91EF919F918F91A8
:100500000F900FBE0F901F9018959C0110929B01A9
:1005100010929C0110929D0110929E0197FF03C0C2
:1005200082E08BB93F7730BD29B988E98AB986E87E
:1005300080BD089590919D0180919E01981719F4B6
:1005400020E031E012C0E0919E01EF5FEF77E09391
:100550009E01F0E0E55EFE4F308120919F01922FD9
:1005600080E0AC01430F511D9A01C9010895282F65
:1005700090919B019F5F9F7780919C019817E1F379
:10058000E92FF0E0E556FF4F208390939B01559AA9
:100590000895DC0111C090919B019F5F9F7780912E
:1005A0009C019817E1F31196E92FF0E0E556FF4F13
:1005B000208390939B01559A2C91222361F70895F3
:1005C000AC0110C020919B012F5F2F7780919C017F
:1005D0002817E1F3E22FF0E0E556FF4F90832093D8
:1005E0009B01559AFA014F5F5F4F9491992351F700
:1005F000089580919D0120919E0190E081589F4F28
:10060000821B91096FE770E05ED0089580919E0192
:1006100080939D0108958CB59DB501969BBD8ABDC3
:1006200080EC8FBD81E88EBD80E288BF80E389BF0A
:100630001092B302B99A0895982F8091B30288233B
:10064000E1F790959093B2028AE08093B302089507
:10065000FC012AE00AC08091B3028823E1F73196B9
:1006600090959093B2022093B3029081992399F7C9
:1006700008951F920F920FB60F9211248F939F939C
:100680008AB59BB58F5B9C4F9BBD8ABD8091B302A1
:10069000882391F081508093B302893011F490E85F
:1006A0000AC08091B20280FD02C090EC01C090E8C7
:1006B00086958093B2029FBD9F918F910F900FBE40
:1006C0000F901F90189597FB092E07260AD077FDEB
:1006D00004D00CD006D000201AF4709561957F4F9D
:1006E0000895F6F7909581959F4F0895AA1BBB1B1F
:1006F00051E107C0AA1FBB1FA617B70710F0A61B22
:10070000B70B881F991F5A95A9F780959095BC0142
:08071000CD010895F894FFCF1C
:100718000A0D4869657220697374206469652054FC
:100728006573742D4170702E2E2E000A4164726517
:10073800737365204F4B000A4164726573736520BB
:0A07480046616C73636800000C004A
:00000001FF
