:1000000012C02CC02BC02AC029C028C0E1C326C002
:1000100025C024C023C0D1C2FAC220C01FC01EC048
:100020001DC01CC01BC011241FBECFE5D4E0DEBF25
:10003000CDBF10E0A0E6B0E0E4E0FEE002C0059035
:100040000D92A43BB107D9F712E0A4EBB0E001C0D8
:100050001D92AE3CB107E1F746D1D2C6D1CF8FEFAA
:100060009FEF9093C5018093C40108954091C4010E
:100070005091C50190E062E070E107C057FD0DC0EE
:10008000A9019F5F983079F0880F9A01220F331FE2
:1000900087FFF4CF216057FFF3CFA90146275727E9
:1000A0009F5F983089F75093C5014093C40108952C
:1000B0008130B1F0882379F0613081F0662331F02E
:1000C000413039F0442309F4C29A0895C59A413069
:1000D000C9F7C2980895C39A613081F7C598F0CFE7
:1000E000C398EACF882399F08130B1F08230F1F0E3
:1000F000833009F18430A9F0853061F1863079F1DF
:10010000873091F18830E1F08930F9F00895A898AE
:10011000A998AA98AB980895A89AA998AA98AB9874
:100120000895A898A998AA9AAB980895A898A99A0A
:10013000AA98AB980895A89AA99AAA98AB980895F6
:10014000A898A998AA98AB9A0895A89AA998AA9845
:10015000AB9A0895A89AA998AA9AAB980895A898D6
:10016000A99AAA9AAB980895A89AA99AAA9AAB981C
:100170000895DC01FB019B012C5F3F4F13968C918E
:10018000139781931197E217F307C1F7089597D258
:1001900008951F93182F8C5F833018F48CEF8FD243
:1001A0001F77812F8CD21F9108950F931F93CF93A8
:1001B000DF938C0180E09DE70197F1F7929A70E060
:1001C00063707070660F771F62957295707F7627E7
:1001D000607F762761616093C60200D000D0EDB7E2
:1001E000FEB7319680E690E0ADB7BEB712969C930D
:1001F0008E9311976283138216D30F900F900F90F6
:100200000F90D3D21092C6018FEF9FEF9093C5014C
:100210008093C4018EEF53D28EEF28DF80E04FD25F
:1002200080E024DF8091C602B4DF8091C6021EDF29
:1002300002301105B1F18091C6018E5FAADF809175
:10024000C6018E5F13DF8091C601882391F007EC11
:1002500011E0C0E0D0E0F80180819BDFD8018D91F2
:100260008D0104DF21968091C60190E0C817D9075F
:1002700094F380E0FBDE80E0F9DE8091C50189DF48
:1002800080EA9FE00197F1F78091C40182DF80E866
:100290009EE30197F1F79298DF91CF911F910F9113
:1002A000089582E08093C6011092C70180E4809394
:1002B000C801C1CF8C9A8D9A8A9ABB9ABD9ABA9A74
:1002C000A09AA19AA29AA39A80E090E00BDF959A57
:1002D000929881E061E041E0EBDE83E390E0BCD105
:1002E00047D2789408958F929F92BF92CF92DF92D7
:1002F000EF92FF920F931F93DF93CF9300D000D024
:10030000CDB7DEB7D7DF8AE790E04FD280E061E07B
:1003100040E0CEDE7E010894E11CF11C00E8C02E16
:100320000EE3D02E0FEFB4E0BB2E88248A94982CD5
:10033000A8D19C0190FDFCCF8C3F910561F18D3FD0
:10034000910509F460C08091B4008130D1F14091F1
:10035000BA019091C301491730F1491709F465C0FA
:100360008091C60283FF0BC0692F70E0E42FF0E09C
:10037000CB01880F991F8E179F070CF078C04F3F55
:1003800021F10093BA012093C601822F6FDE86E02F
:1003900090E0A8DECDCF8091B4008823B1F681E053
:1003A0008093B400C5CFE42FF0E0E554FE4F2083E6
:1003B0004F5F4093BA01822F59DE82E090E092DED7
:1003C000B7CF20681092B400C2CF112309F4B0CF88
:1003D000E091C702F0E0E953FE4F2083822F46DE12
:1003E0004091C702242F30E08091C60190E0019730
:1003F0002817390709F457C04F3F09F44FC04F5F22
:100400004093C70295CF1092B4001092BA01B092F7
:10041000C3011092C7029092C5018092C4018DEF72
:1004200025DE81E090E05EDE83CF2093C6024F5F41
:100430004093BA01822F1ADEEEEBF1E0D701808102
:100440008D93319721E0EA3BF207C9F783E090E012
:1004500049DE89819A81AB81BC8189529041A0405B
:10046000B040A1F081EA90E0A0D110E061CF3197D7
:10047000E61BF70BE853FD4F20834F5F4093BA0113
:10048000822FF4DD85E090E02DDE52CF85E990E00B
:100490008CD184E090E026DE11E04ACF81E060E07C
:1004A00040E006DE45CF80E0E1DD80E0DFDD109258
:1004B000C7021092BA0187E090E014DE8091C40177
:1004C0009091C501892B51F788E090E00BDE809177
:1004D000C701873639F0803781F0833721F14091A9
:1004E000C7028ACF6091C6026695637081E090E092
:1004F0005CDE8091C701803781F76091C602669506
:10050000637082E090E051DE89E090E0EBDDC601AF
:100510000197F1F7E091B100F091B2000995809157
:10052000C7018337E1F66091C6026695637082E089
:1005300090E03BDE8091C9018130C1F0823069F0EA
:10054000833069F68091CA01882329F1813039F618
:1005500082E062E041E0ACDDC2CF8091CA01882335
:1005600099F0813061F08091C901EACF8091CA0190
:100570008823E9F08130B1F08091C901DFCF82E0BA
:1005800061E042E095DDEFCF82E060E042E090DDA7
:100590008091CA01E6CF82E062E040E089DD80918F
:1005A000CA01D4CF81E062E042E082DDE5CF62E0C3
:1005B00042E07EDD8091CA01DDCF1F920F920FB61F
:1005C0000F9211242F938F939F93EF93FF939BB1DF
:1005D0002CB1E091B701EF5FEF778091B801E81798
:1005E000A1F0892F8871E093B701F0E0EB5CFE4F3A
:1005F00020838093B901FF91EF919F918F912F916B
:100600000F900FBE0F901F90189582E0F2CF1F92AF
:100610000F920FB60F9211248F939F93EF93FF9336
:100620009091B5018091B6019817A1F0E091B601C3
:10063000EF5FEF77E093B601F0E0EB54FF4F80817E
:100640008CB9FF91EF919F918F910F900FBE0F90FA
:100650001F9018955598F5CF9C011092B5011092F6
:10066000B6011092B7011092B80197FF03C082E063
:100670008BB93F7730BD29B988E98AB986E880BD52
:1006800008959091B7018091B8019817A1F0E09179
:10069000B801EF5FEF77E093B801F0E0EB5CFE4F5D
:1006A00030812091B901922F80E0AC01430F511DA0
:1006B0009A01C901089520E031E0C9010895282F69
:1006C0009091B5019F5F9F778091B6019817E1F3F4
:1006D000E92FF0E0EB54FF4F20839093B501559A3A
:1006E0000895DC012C912223A1F011969091B5017F
:1006F0009F5F9F778091B6019817E1F3E92FF0E0B3
:10070000EB54FF4F20839093B501559A2C912223EF
:1007100061F70895FC0144914423B9F09C012F5FD7
:100720003F4F9091B5019F5F9F778091B6019817D9
:10073000E1F3E92FF0E0EB54FF4F40839093B501D4
:10074000559AF9014491442351F708958091B701D6
:100750002091B80190E081589F4F821B91096FE76B
:1007600070E0F0D208958091B8018093B7010895A8
:100770008CB59DB501969BBD8ABD80EC8FBD81E88F
:100780008EBD80E288BF80E389BF1092CD02B99A06
:100790000895982F8091CD028823E1F7909590934A
:1007A000CC028AE08093CD020895FC0190819923C8
:1007B00071F02AE031968091CD028823E1F790957F
:1007C0009093CC022093CD029081992399F70895BC
:1007D0001F920F920FB60F9211248F939F938AB599
:1007E0009BB58F5B9C4F9BBD8ABD8091CD028823BA
:1007F00071F081508093CD02893091F08091CC02CC
:1008000080FF0CC090E886958093CC029FBD9F919D
:100810008F910F900FBE0F901F90189590ECF3CF13
:1008200090E89FBDF4CFAEE0B0E0E8E1F4E0BFC2F5
:100830000D891E8986E08C831A8309838FEF9FE7D9
:100840009E838D839E01275E3F4FCE0101966F8967
:10085000788DA90109D02F813885020F131FF80167
:1008600010822E96E4E0BFC2ABE0B0E0E9E3F4E032
:1008700090C23C012B015A01FC0117821682838130
:1008800081FD03C06FEF7FEFB9C19AE0892E1E0191
:100890000894211C311CF3012381F20123FD859171
:1008A00023FF81912F01882309F4A5C1853239F4F2
:1008B00023FD859123FF81912F01853221F490E062
:1008C000B301B6D1E8CF982FFF24EE249924FFE19D
:1008D000FF15D0F09B3269F09C3228F4903259F029
:1008E000933291F40EC09D3249F0903369F441E0A7
:1008F00024C052E0F52A84E0F82A28C098E0F92ABA
:1009000025C0E0E1FE2A22C0F7FC29C0892F8053D0
:100910008A3070F4F6FE05C0989C902C1124980E35
:1009200015C0E89CE02C1124E80EF0E2FF2A0EC06E
:100930009E3229F4F6FC5FC140E4F42A07C09C36DD
:1009400019F450E8F52A02C0983649F4F20123FD63
:10095000959123FF91912F01992309F0B8CF892F09
:100960008554833018F08052833038F444E050E0EE
:10097000A40EB51E5FE359830FC0933631F0933751
:1009800079F0933509F052C01FC0F5018081898349
:1009900042E050E0A40EB51E610101E010E011C07C
:1009A000F501C080D180F6FC03C06FEF7FEF02C07D
:1009B000692D70E042E050E0A40EB51EC6012DD1B5
:1009C0008C015FE7F52213C0F501C080D180F6FCF1
:1009D00003C06FEF7FEF02C0692D70E042E050E08E
:1009E000A40EB51EC6010ED18C0150E8F52AF3FE07
:1009F00006C018C080E290E0B3011AD1EA948E2DAF
:100A000090E008171907B0F30DC0F601F7FC8591C7
:100A1000F7FE81916F0190E0B3010AD1E110EA94F1
:100A2000015010400115110581F7E2C0943611F014
:100A3000993661F5F7FE08C0F501208131814281C8
:100A4000538184E090E00AC0F501808191819C018E
:100A5000442737FD4095542F82E090E0A80EB91E40
:100A60009FE6F92257FF09C0509540953095219592
:100A70003F4F4F4F5F4FE0E8FE2ACA01B901A10185
:100A80002AE030E001D1D82ED2183FC0953729F4A2
:100A90001F2D1F7E2AE030E01DC01F2D197F9F36BD
:100AA00061F0903720F4983509F0A5C00FC0903759
:100AB00039F0983709F09FC004C028E030E00AC040
:100AC000106114FD146020E130E004C014FD1660D4
:100AD00020E132E017FF08C0F50160817181828159
:100AE000938144E050E008C0F50180819181BC0110
:100AF00080E090E042E050E0A40EB51EA101C4D019
:100B0000D82ED2188FE7F82EF122F6FE0BC05EEF3A
:100B1000F522D91438F4F4FE07C0F2FC05C08FEEBC
:100B2000F82202C01D2D01C0192DF4FE0DC0FE01DA
:100B3000ED0DF11D8081803319F499EEF92208C082
:100B40001F5FF2FE05C003C08F2D867809F01F5F7E
:100B50000F2DF3FC13C0F0FE0EC01E1510F09D2CDF
:100B60000AC09D2C9E0C911A1E2D05C080E290E0BB
:100B7000B3015ED01F5F1E15C8F304C01E1510F42C
:100B8000E11A01C0EE2404FF0EC080E390E0B3013F
:100B90004FD002FF1BC001FD03C088E790E00EC0EC
:100BA00088E590E00BC0802F867881F001FF02C0BD
:100BB0008BE201C080E2F7FC8DE290E0B30138D017
:100BC00005C080E390E0B30133D09A94D914C8F300
:100BD000DA94F101ED0DF11D808190E0B30128D090
:100BE000DD20B1F705C080E290E0B30121D0EA94A6
:100BF000EE20C9F750CEF30166817781CB012B96A9
:100C0000E2E1E3C0FC010590615070400110D8F7AB
:100C1000809590958E0F9F1F0895FC016150704044
:100C200001900110D8F7809590958E0F9F1F089521
:100C30000F931F93CF93DF938C01EB018B8181FF87
:100C40001BC082FF0DC02E813F818C819D812817A2
:100C5000390764F4E881F9810193F983E88306C0D8
:100C6000E885F985802F0995892B31F48E819F8144
:100C700001969F838E8302C00FEF1FEFC801DF91A3
:100C8000CF911F910F910895FA01AA27283051F1B1
:100C9000203181F1E8946F936E7F6E5F7F4F8F4FAD
:100CA0009F4FAF4FB1E03ED0B4E03CD0670F781F0C
:100CB000891F9A1FA11D680F791F8A1F911DA11DF1
:100CC0006A0F711D811D911DA11D20D009F468942A
:100CD0003F912AE0269F11243019305D3193DEF6D2
:100CE000CF010895462F4770405D4193B3E00FD088
:100CF000C9F7F6CF462F4F70405D4A3318F0495D73
:100D000031FD4052419302D0A9F7EACFB4E0A69555
:100D10009795879577956795BA95C9F70097610577
:100D2000710508959B01AC010A2E069457954795CD
:100D300037952795BA95C9F7620F731F841F951FC2
:100D4000A01D089597FB092E07260AD077FD04D031
:100D50000CD006D000201AF4709561957F4F08954D
:100D6000F6F7909581959F4F0895AA1BBB1B51E103
:100D700007C0AA1FBB1FA617B70710F0A61BB70B0B
:100D8000881F991F5A95A9F780959095BC01CD01B0
:100D900008952F923F924F925F926F927F928F921F
:100DA0009F92AF92BF92CF92DF92EF92FF920F93FA
:100DB0001F93CF93DF93CDB7DEB7CA1BDB0B0FB604
:100DC000F894DEBF0FBECDBF09942A8839884888C1
:100DD0005F846E847D848C849B84AA84B984C88457
:100DE000DF80EE80FD800C811B81AA81B981CE0F4E
:100DF000D11D0FB6F894DEBF0FBECDBFED01089533
:040E0000F894FFCF94
:100E04000A53656E6420436F6E74726F6C627974FA
:100E1400653A20307825303278000A0D48696572C9
:100E2400206973742064696520546573742D41705E
:100E3400702E2E2E000A41647265737365204F4B29
:100E4400000A416472657373652046616C7363685C
:040E540000000C008E
:00000001FF
