:1000000012C02CC02BC02AC029C028C0C1C326C022
:1000100025C024C023C0B1C2DAC220C01FC01EC088
:100020001DC01CC01BC011241FBECFE5D4E0DEBF25
:10003000CDBF10E0A0E6B0E0E8E3F8E002C0059034
:100040000D92A43AB107D9F712E0A4EAB0E001C0DA
:100050001D92AE3BB107E1F726D1ECC3D1CF8FEFB4
:100060009FEF9093B5018093B40108954091B4013E
:100070005091B50190E062E070E107C057FD0DC0FE
:10008000A9019F5F983079F0880F9A01220F331FE2
:1000900087FFF4CF216057FFF3CFA90146275727E9
:1000A0009F5F983089F75093B5014093B40108954C
:1000B0008130B1F0882379F0613081F0662331F02E
:1000C000413039F0442309F4C29A0895C59A413069
:1000D000C9F7C2980895C39A613081F7C598F0CFE7
:1000E000C398EACF882399F08130B1F08230F1F0E3
:1000F000833009F18430A9F0853061F1863079F1DF
:10010000873091F18830E1F08930F9F00895A898AE
:10011000A998AA98AB980895A89AA998AA98AB9874
:100120000895A898A998AA9AAB980895A898A99A0A
:10013000AA98AB980895A89AA99AAA98AB980895F6
:10014000A898A998AA98AB9A0895A89AA998AA9845
:10015000AB9A0895A89AA998AA9AAB980895A898D6
:10016000A99AAA9AAB980895A89AA99AAA9AAB981C
:100170000895DC01FB019B012C5F3F4F13968C918E
:10018000139781931197E217F307C1F7089577D278
:1001900008951F93182F8C5F833018F48CEF6FD263
:1001A0001F77812F6CD21F9108950F931F93CF93C8
:1001B000DF938C0180E09DE70197F1F7929A82E549
:1001C0008093B6021092B6018FEF9FEF9093B50126
:1001D0008093B4018EEF53D28EEF48DF80E04FD290
:1001E00080E044DF8091B602D4DF8091B6023EDF2A
:1001F00002301105B1F18091B6018E5FCADF8091A6
:10020000B6018E5F33DF8091B601882391F007EB52
:1002100011E0C0E0D0E0F8018081BBDFF8018191FE
:100220008F0124DF21968091B60190E0C817D9078D
:1002300094F380E01BDF80E019DF8091B501A9DF36
:1002400080EA9FE00197F1F78091B401A2DF80E896
:100250009EE30197F1F79298DF91CF911F910F9153
:10026000089582E08093B6011092B70180E48093F4
:10027000B801C1CF8C9A8D9A8A9ABB9ABD9ABA9AC4
:10028000A09AA19AA29AA39A80E090E02BDF959A77
:10029000929881E061E041E00BDF83E390E0BCD124
:1002A00047D2789408958F929F92BF92CF92DF9217
:1002B000EF92FF920F931F93DF93CF9300D000D064
:1002C000CDB7DEB7D7DF80E690E04FD280E061E0C7
:1002D00040E0EEDE7E010894E11CF11C00E8C02E37
:1002E0000EE3D02E0FEFB4E0BB2E88248A94982C16
:1002F000A8D19C0190FDFCCF8C3F910561F18D3F11
:10030000910509F460C08091A4008130D1F1409141
:10031000AA019091B301491730F1491709F465C05A
:100320008091B60283FF0BC0692F70E0E42FF0E0EC
:10033000CB01880F991F8E179F070CF078C04F3F95
:1003400021F10093AA012093B601822F8FDE86E06F
:1003500090E0C8DECDCF8091A4008823B1F681E083
:100360008093A400C5CFE42FF0E0E555FE4F208335
:100370004F5F4093AA01822F79DE82E090E0B2DEE7
:10038000B7CF20681092A400C2CF112309F4B0CFD8
:10039000E091B702F0E0E954FE4F2083822F66DE41
:1003A0004091B702242F30E08091B60190E0019790
:1003B0002817390709F457C04F3F09F44FC04F5F62
:1003C0004093B70295CF1092A4001092AA01B09268
:1003D000B3011092B7029092B5018092B4018DEFF3
:1003E00045DE81E090E07EDE83CF2093B6024F5F52
:1003F0004093AA01822F3ADEEEEAF1E0D701808134
:100400008D93319721E0EA3AF207C9F783E090E053
:1004100069DE89819A81AB81BC8189529041A0407B
:10042000B040A1F081E990E0A0D110E061CF319718
:10043000E61BF70BE854FD4F20834F5F4093AA0162
:10044000822F14DE85E090E04DDE52CF85E890E00B
:100450008CD184E090E046DE11E04ACF81E060E09C
:1004600040E026DE45CF80E001DE80E0FFDD109237
:10047000B7021092AA0187E090E034DE8091B401C7
:100480009091B501892B51F788E090E02BDE8091A7
:10049000B701873639F0803781F0833721F14091F9
:1004A000B7028ACF6091B6026695637081E090E0F2
:1004B0007CDE8091B701803781F76091B602669546
:1004C000637082E090E071DE89E090E00BDEC601AF
:1004D0000197F1F7E091A100F091A20009958091B8
:1004E000B7018337E1F66091B6026695637082E0EA
:1004F00090E05BDE8091B9018130C1F0823069F01B
:10050000833069F68091BA01882329F1813039F668
:1005100082E062E041E0CCDDC2CF8091BA01882365
:1005200099F0813061F08091B901EACF8091BA01F0
:100530008823E9F08130B1F08091B901DFCF82E00A
:1005400061E042E0B5DDEFCF82E060E042E0B0DDA7
:100550008091BA01E6CF82E062E040E0A9DD8091BF
:10056000BA01D4CF81E062E042E0A2DDE5CF62E0F3
:1005700042E09EDD8091BA01DDCF1F920F920FB64F
:100580000F9211242F938F939F93EF93FF939BB11F
:100590002CB1E091A701EF5FEF778091A801E817F8
:1005A000A1F0892F8871E093A701F0E0EB5DFE4F89
:1005B00020838093A901FF91EF919F918F912F91BB
:1005C0000F900FBE0F901F90189582E0F2CF1F92F0
:1005D0000F920FB60F9211248F939F93EF93FF9377
:1005E0009091A5018091A6019817A1F0E091A60134
:1005F000EF5FEF77E093A601F0E0EB55FF4F8081CE
:100600008CB9FF91EF919F918F910F900FBE0F903A
:100610001F9018955598F5CF9C011092A501109246
:10062000A6011092A7011092A80197FF03C082E0D3
:100630008BB93F7730BD29B988E98AB986E880BD92
:1006400008959091A7018091A8019817A1F0E091D9
:10065000A801EF5FEF77E093A801F0E0EB5DFE4FBC
:1006600030812091A901922F80E0AC01430F511DF0
:100670009A01C901089520E031E0C9010895282FA9
:100680009091A5019F5F9F778091A6019817E1F354
:10069000E92FF0E0EB55FF4F20839093A501559A89
:1006A0000895DC012C912223A1F011969091A501CF
:1006B0009F5F9F778091A6019817E1F3E92FF0E003
:1006C000EB55FF4F20839093A501559A2C9122233F
:1006D00061F70895FC0144914423B9F09C012F5F18
:1006E0003F4F9091A5019F5F9F778091A60198173A
:1006F000E1F3E92FF0E0EB55FF4F40839093A50124
:10070000559AF9014491442351F708958091A70126
:100710002091A80190E081589F4F821B91096FE7BB
:1007200070E061D008958091A8018093A701089599
:100730008CB59DB501969BBD8ABD80EC8FBD81E8CF
:100740008EBD80E288BF80E389BF1092BD02B99A56
:100750000895982F8091BD028823E1F7909590939A
:10076000BC028AE08093BD020895FC019081992328
:1007700071F02AE031968091BD028823E1F79095CF
:100780009093BC022093BD029081992399F708951C
:100790001F920F920FB60F9211248F939F938AB5D9
:1007A0009BB58F5B9C4F9BBD8ABD8091BD0288230A
:1007B00071F081508093BD02893091F08091BC022C
:1007C00080FF0CC090E886958093BC029FBD9F91EE
:1007D0008F910F900FBE0F901F90189590ECF3CF54
:1007E00090E89FBDF4CF97FB092E07260AD077FD2E
:1007F00004D00CD006D000201AF4709561957F4F7C
:100800000895F6F7909581959F4F0895AA1BBB1BFD
:1008100051E107C0AA1FBB1FA617B70710F0A61B00
:10082000B70B881F991F5A95A9F780959095BC0121
:08083000CD010895F894FFCFFB
:100838000A0D4869657220697374206461732041E8
:100848006E77656E64756E677370726F6772616DCF
:100858006D2E2E2E000A41647265737365204F4B0E
:10086800000A416472657373652046616C7363683E
:0408780000000C0070
:00000001FF
