:1000000012C02CC02BC02AC029C028C0D6C226C00E
:1000100025C024C023C0D6C101C220C01FC01EC03D
:100020001DC01CC01BC011241FBECFE5D4E0DEBF25
:10003000CDBF10E0A0E6B0E0E4E1F6E002C005903C
:100040000D92A838B107D9F711E0A8E8B0E001C0D7
:100050001D92A23EB107E1F7D7D0DAC2D1CF8FEF20
:100060009FEF9093D9008093D80008954091D800D5
:100070005091D90090E062E070E107C057FD0DC0DB
:10008000A9019F5F983079F0880F9A01220F331FE2
:1000900087FFF4CF216057FFF3CFA90146275727E9
:1000A0009F5F983089F75093D9004093D800089506
:1000B000813041F0C09A613041F0C59A413041F041
:1000C000C29A0895C0986130C1F7C5984130C1F710
:1000D000C2980895DC01FB019B012C5F3F4F1396F2
:1000E0008C91139781931197E217F307C1F7089545
:1000F000EDD108951F93182F8C5F833018F48CEF87
:10010000E5D11F77812FE2D11F9108950F931F939F
:10011000CF93DF938C0180E09DE70197F1F7929AEE
:1001200070E063707070660F771F62957295707FD4
:100130007627607F762761616093DA011092DA009A
:100140008FEF9FEF9093D9008093D8008EEFBED1B0
:100150008EEF8CDF80E0BAD180E088DF8091DA0119
:10016000C9DF8091DA0182DF0230110591F18091BF
:10017000DA008E5FBFDF8091DA008E5F77DF8091DB
:10018000DA00882391F00BED10E0C0E0D0E0F80138
:100190008081B0DFF80181918F0168DF2196809125
:1001A000DA0090E0C817D90794F380E05FDF80E0C1
:1001B0005DDF8091D9009EDF8091D8009BDF80E8D1
:1001C0009EE30197F1F79298DF91CF911F910F91E4
:1001D000089582E08093DA001092DB0080E480933F
:1001E000DC00C5CF8C9A8D9A8A9AB89ABD9ABA9A31
:1001F000959A929881E061E041E05ADF83E390E0D4
:1002000032D1ABD178940895CF92DF92EF92FF92E2
:100210000F931F93DF93CF9300D000D0CDB7DEB7FD
:10022000E1DF789480E690E0B5D180E061E040E0E5
:100230003FDF7E010894E11CF11CDD24DA94B4E078
:10024000CB2E0FEF1FEF26D19C0190FDFCCF8C3FF2
:10025000910549F18D3F910509F455C080918800C1
:100260008130A1F14091CE009091D700491718F14B
:10027000491709F457C08091DA0183FF0BC0692F39
:1002800070E0E42FF0E0CB01880F991F8E179F07D5
:100290000CF05AC04F3FF1F0D092CE002093DA001C
:1002A000822FE4DED0CF809188008823C9F681E0D8
:1002B00080938800C8CFE42FF0E0E153FF4F208304
:1002C0004F5F4093CE00822FD1DEBDCF20681092C9
:1002D0008800C8CFE091DB01F0E0E552FF4F2083BA
:1002E000822FC4DE4091DB01242F30E08091DA00C0
:1002F00090E001972817390791F14F3F59F14F5F6F
:100300004093DB01A0CF109288001092CE00C092E3
:10031000D7001092DB011093D9000093D8008DEF25
:10032000A5DE91CF2093DA014F5F4093CE00822F5C
:100330009DDEE2EDF0E0D70180818D93319780E082
:10034000EE3CF807C9F77FCF3197E61BF70BE45275
:10035000FE4FB5CF81E060E040E0AADE74CF80E0E0
:1003600085DE80E083DE1092DB011092CE0080916A
:10037000D8009091D900892B69F78091DB008037F4
:1003800029F08736B9F04091DB01B7CF80E060E01B
:1003900041E08EDE6091DA016695637082E090E064
:1003A000B5DEE0918500F091860009958091DB0033
:1003B000873649F76091DA016695637081E090E0D5
:1003C000A5DEE1CF1F920F920FB60F9211242F934B
:1003D0008F939F93EF93FF939BB12CB1E091CB0050
:1003E000EF5FEF718091CC00E817B1F09871E09366
:1003F000CB00F0E0E755FF4F20838091CD00982B94
:100400009093CD00FF91EF919F918F912F910F903D
:100410000FBE0F901F90189592E0EFCF1F920F9292
:100420000FB60F9211248F939F93EF93FF939091A8
:10043000C9008091CA009817A1F0E091CA00EF5F4F
:10044000EF71E093CA00F0E0E757FF4F80818CB96D
:10045000FF91EF919F918F910F900FBE0F901F9082
:1004600018955598F5CF9C011092C9001092CA00BA
:100470001092CB001092CC0097FF03C082E08BB9A2
:100480003F7730BD29B988E98AB986E880BD86EA18
:1004900080BD08959091CB008091CC00981791F089
:1004A000E091CC00EF5FEF71E093CC00F0E0E75516
:1004B000FF4F80819091CD001092CD00282F30E029
:1004C000C901089520E031E0C9010895282F9091D5
:1004D000C9009F5F9F718091CA009817E1F3E92FCF
:1004E000F0E0E757FF4F20839093C900559A089595
:1004F000DC012C912223A1F011969091C9009F5FFD
:100500009F718091CA009817E1F3E92FF0E0E75757
:10051000FF4F20839093C900559A2C91222361F7B5
:100520000895FC0144914423B9F09C012F5F3F4F93
:100530009091C9009F5F9F718091CA009817E1F365
:10054000E92FF0E0E757FF4F40839093C900559A99
:10055000F9014491442351F708958CB59DB5019656
:100560009BBD8ABD80EC8FBD81E88EBD80E288BFD7
:1005700080E389BF1092E101B99A0895982F809184
:10058000E1018823E1F790959093E0018AE0809360
:10059000E1010895FC019081992371F02AE03196E0
:1005A0008091E1018823E1F790959093E0012093F9
:1005B000E1019081992399F708951F920F920FB648
:1005C0000F9211248F939F938AB59BB58F5B9C4F9D
:1005D0009BBD8ABD8091E101882371F08150809399
:1005E000E101893091F08091E00180FF0CC090E83A
:1005F00086958093E0019FBD9F918F910F900FBED4
:100600000F901F90189590ECF3CF90E89FBDF4CF1A
:04061000F894FFCF8C
:100614000A0D48696572206973742064617320410E
:100624006E77656E64756E677370726F6772616DF5
:080634006D2E2E2E00000C00BB
:00000001FF
