:1000000012C02CC02BC02AC029C028C05BC026C08B
:1000100025C024C023C022C021C020C01FC01EC0D4
:100020001DC01CC01BC011241FBECFE5D4E0DEBF25
:10003000CDBF10E0A0E6B0E0ECE1F1E002C0059039
:100040000D92A437B107D9F710E0A4E7B0E001C0E2
:100050001D92A637B107E1F702D05EC0D1CF0AD01A
:10006000789480E690E01BD082E790E00DD080E0AD
:1000700090E0089580EC8FBD81E88EBD80E189BF5E
:1000800010927500B99A0895909175009923E1F73F
:100090008095809374008AE0809375000895EF92B4
:1000A000FF92CF93DF93E82EE7017E01F92EE7015F
:1000B00001C0EADF89918823E1F7DF91CF91FF90BA
:1000C000EF9008951F920F920FB60F9211248F9305
:1000D0009F938AB59BB58F559E4F9BBD8ABD8091DE
:1000E0007500882391F0815080937500893059F014
:1000F0009091740090FF02C080E801C080EC96955A
:100100009093740001C080E88FBD9F918F910F90F4
:0C0110000FBE0F901F901895F894FFCFC1
:10011C0048616C6C6F2041546D6567613820210A11
:04012C000D003E0084
:00000001FF
